HGOBERNACION DEL ESTADO AMAZONAS         F.  C.  I.0301/07/24000000181825003291
001020338420000074405000000017500770CAMACHO G, WILLIAM                      0006087028003291
001020457760000370675000000017500770BAUTISTA MANUEL                         0008414278003291
101020457710100653143000000017501770CEDENO DADURE, NILSA ALCIDA             0001565216003291
001020457760000206150000000017500770ARROYO CARRASQUEL, RAMON A.             0001565644003291
101020457770100648138000000017501770ZUARICH DIAZ NASTTIA                    0001569486003291
001020457700000108782000000017500770LUNA MARTINEZ, MARIA GERVASIA           0001569988003291
001020457710000113696000000017500770MONTOYA RUBEN ANTONIO                   0003988985003291
101020457720100632274000000017501770HERNANDEZ MIGUEL                        0004507392003291
001020457700000684811000000017500770PLAZ ALMEIDA, RAMON P.                  0004598211003291
001020457760000161842000000017500770HERNANDEZ, JOSE RAFAEL                  0004696945003291
001020457750000274344000000017500770FERNANDEZ LINARES CARLOS                0004780115003291
001020101210000344038000000017500770OROZCO, CARLOS                          0004780177003291
101020457790100636117000000017501770GUINARE, YOSUINO ANGEL                  0004780774003291
001020457710000389585000000017500770MUNOZ DE GAVIDIA NANCY                  0004870349003291
001020457770000684057000000017500770ALMEIDA VALENTIN DE JESUS               0004978942003291
101020457710100633188000000017501770PAEZ PEDRO SAUL                         0005361495003291
001020457740000514114000000017500770FONT RODRIGUEZ, LUIS                    0005983754003291
001020457770000548656000000017500770GARCIA PEREZ, DEISY YUBIRI              0006333813003291
101020457710100645597000000017501770YURUMARE YURUMARE, ALDEMARO             0006341719003291
001020457700000641621000000017500770GARCIA TRABANCA, LUZ ESPERANZA          0006377946003291
101020457780100639334000000017501770PEREZ,  CARLOS                          0006722697003291
001020457770000606242000000017500770HENRIQUEZ RUIZ NIDIA                    0006882473003291
101020457770100632425000000017501770SALAZAR CORTEZ, NELSON RAMON            0006938634003291
001020131460000107806000000017500770DUMA SANCHEZ BENJAMIN                   0007261643003291
001020457710002651240000000017500770BOLIVAR, RODOLFO                        0007263842003291
001020457730000604985000000017500770SANZ TORRES ALCIDES ORLANDO             0007282370003291
001020105520000115610000000017500770RODRIGUEZ, MIGUEL                       0007454894003291
001020457770000084204000000017500770DASILVA, PEDRO                          0008173633003291
001020457770000955621000000017500770MURILLO, LILA                           0008414285003291
101020457730100632430000000017501770SILVA CAMICO, MATILDE                   0008774790003291
001020457710000409740000000017500770GOMEZ MAQUIRINO, JOSE                   0008774837003291
101020457710100658259000000017501770LOPEZ, EDGAR HILSO                      0008775094003291
001020457750000148470000000017500770MARTINEZ RODRIGUEZ, MORAIMA             0008784580003291
001020152780000039071000000017500770MORENO TORREALBA, JOSE RAMON            0008850300003291
101020457760100652599000000017501770ALZATE, TAHIS MAGDALENA                 0008900227003291
001020457710000671426000000017500770VASQUEZ CABI, JESUS SATURNINO           0008902124003291
001020457790000451293000000017500770MARTINEZ H., ELIEZER                    0008902176003291
101020457760100653526000000017501770LARA GUTIERREZ, LUZ                     0008903069003291
101020457730100657487000000017501770DORANTE CAYUPARE, TIMOTEO               0008903108003291
001020457770000395566000000017500770AQUINO TOVAR, MARIA MAGDALENA           0008903847003291
001020457790000670142000000017500770GARCIA, ELEOPOLDO MANUEL                0008904955003291
001020457700000482194000000017500770LOZADA, JESUS OMAR                      0008909505003291
101020457720100064155000000017501770MEDINA DE MORENO LUHA ESTRELLA          0008945315003291
101020457780100643657000000017501770LARGO MIRABAL, ANTONIO                  0008945558003291
101020457770100627919000000017501770ABREU VASQUEZ, AURA OLIVIA              0008945575003291
101020457720100637281000000017501770CACHERO MARTINEZ, ANDRES                0008945723003291
001020457790000164522000000017500770NIETO MONTERO, NENA MARINA              0008945812003291
001020457790000518149000000017500770ARAGUA TAPO DILIO                       0008945898003291
101020457790100049772000000017501770FERNANDEZ, SILVER                       0008945907003291
001020457760000376475000000017500770FIGUEREDO LEIDIS JOSEFINA               0008946084003291
001020457710000415433000000017500770ESTRADA DE INFANTE ROSA VIOLAN          0008946478003291
101020457760100657852000000017501770OJEDA, YENI                             0008947338003291
001020457770000153957000000017500770HERRERA JIMENEZ, HUMBERTO               0008948423003291
001020457760000372068000000017500770RAMIREZ CHIPIAJE, INA                   0008948808003291
001020457780000545604000000017500770BATISTA, PETRA CARMEN                   0008948838003291
001020457740000340867000000017500770RAMIREZ RATTIS, JOSE                    0008949023003291
001020457710000448769000000017500770PAYEMA EVARISTO, LIDIA                  0008949809003291
001020457790000770712000000017500770DUARTE HERNANDEZ, LUIS ALFREDO          0009187736003291
101020457790100648476000000017501770VELAZQUEZ REYES ENOD                    0009192543003291
001020457710000790831000000017500770MENDEZ RINCONES, JUDITH C.              0009599906003291
001020215970000587439000000017500770PEREIRA HERRERA YAJAIRA                 0009654731003291
101020457710100064769000000017501770GARCIA RODRIGUEZ, FRED ANTONIO          0009891179003291
001020457760000955692000000017500770GOMEZ, EDUINO                           0010015407003291
101020457780100642864000000017501770VALERIANO GONZALEZ, REQUENA             0010024399003291
001020457770001013342000000017500770LOYOLA B. FREDDY R.                     0010267311003291
101020457710100652727000000017501770WANAPANAI ULI, ISAIAS                   0010532100003291
001020457730000904025000000017500770BLANCA B. JORGE                         0010605214003291
101020457770100646518000000017501770LAPA BONILLA, ANTONIO                   0010605465003291
101020457720100648412000000017501770PONARE, ROBERTO                         0010605662003291
001020457750000575289000000017500770PENA ROBERTO                            0010605665003291
101020457720100645297000000017501770YUAVE DE CAMICO, MIRIAN                 0010606326003291
101020457710100646359000000017501770HIRIROWE,  NICO                         0010606849003291
101020457770100637124000000017501770GONZALEZ, JUAN                          0010622196003291
001020712610000022143000000017500770GARCIA, DORIS SUSANA                    0010655161003291
001020457740000546027000000017500770JIMENEZ DE MATUTE, CARMEN               0010656565003291
001020457760000117498000000017500770HERRERA, CLARA JOSEFINA                 0010658671003291
001020457790000496847000000017500770TORRES BARRIOS MAYIRI                   0010660625003291
001020457720000502854000000017500770HERRERA, EVA CORALIDA                   0010660668003291
101020457710100646113000000017501770ARAUJO DOMINGUEZ SIMA J.                0010662745003291
001020457710000498023000000017500770GAMEZ DE MEDINA ZULAY                   0010663834003291
101020378300100023327000000017501770AGUILAR DE MARTINEZ YELITZA J.          0010756556003291
001020457790000501240000000017500770GRIMAN PARRA, EGLEE YULEIMA             0010859045003291
101020457720100657885000000017501770DELGADO, LUIS                           0010920776003291
001020457710000489265000000017500770RUIZ TABARE, JOSE ENRIQUE               0010920824003291
101020457720100009513000000017501770TOVAR, ELENA EDUARDA                    0010921403003291
001020457710000315591000000017500770MARCHENA JOSE VICENTE                   0010921486003291
001020457750000275039000000017500770LOPEZ, RAFAEL                           0010921507003291
001020457700000851068000000017500770BLANCA RODRIGUEZ MARIA ADELINA          0010921669003291
001020457760000347543000000017500770BUSTAMANTE BUITRIAGO, LUIS              0010921766003291
001020457700000431116000000017500770PONARE LUCIO                            0010923460003291
001020457710000431129000000017500770GONZALEZ CLARIN, MARISOL                0010923514003291
001020457700000581257000000017500770CHIRINOS CAVI ARELIS                    0010923559003291
101020457710100643809000000017501770RODRIGUEZ, ABEL                         0010924514003291
101020457730100632721000000017501770DELGADO, ANA CASILDA                    0010942213003291
101020457790100651703000000017501770ORTIZ GONZALEZ ISAAC ANTONIO            0011232796003291
001020457760000390862000000017500770SALAZAR, LUIS OBERTO                    0011243116003291
001020457720000096221000000017500770RIVERA PACHECO, WENDY YANET             0011394197003291
001020457740000720212000000017500770CABRICES CAMEJO, JUAN                   0011758978003291
001020457790000599511000000017500770GONZALEZ, ISOLINA DEL CARMEN            0011761233003291
101020457740100636467000000017501770GARCIA ALVAREZ,GLORIA REBECA            0012173351003291
101020457730100635540000000017501770CHIPIAJE LARA, AGUSTIN                  0012173450003291
101020457780100632156000000017501770VALERO YAVINAPE, NELSON                 0012173645003291
001020457760000212241000000017500770GONZALEZ SALAZAR, WILDER RAMON          0012173677003291
001020457750000565765000000017500770CASTILLO MUNOZ LUIS MANUEL              0012173926003291
001020334190000027850000000017500770SILVA E. FREDDY G                       0012334155003291
001020457750000347129000000017500770BITRIAGA DE LUNA, DEISY                 0012338650003291
001020284170000235082000000017500770YUAVE D. JESUS RAFAEL                   0012451055003291
001020457760000361202000000017500770NIEVES DE GONZALEZ, CARMEN              0012451473003291
101020712680100001560000000017501770BAUTISTA VEGAS, ROMERO                  0012451506003291
101020457770100656708000000017501770PAYEMA PEREZ, JOSE                      0012469169003291
101020457710100655796000000017501770MONTERO BOLIVAR, ANALI                  0012469268003291
101020457760100059700000000017501770CLARIN ANEZ, DAMNY GREGORIO             0012469452003291
001020457790000641773000000017500770GOMEZ ESTEVES, ALEJANDRO A.             0012469568003291
001020457710000287137000000017500770MARTINEZ ALVAREZ, RODOLFO               0012469583003291
001020457720000641799000000017500770GARCIA VIDERA, JOSE MIGUEL              0012469604003291
001020501880007213162000000017500770VALERIANO GONZALEZ, ANDRES              0012469685003291
101020457790100657887000000017501770DIAZ CURIJINA, FREDDY BAUTISTA          0012469703003291
001020457740000858252000000017500770MEJIAS RODRIGUEZ, JORGE                 0012469738003291
101020457700100649232000000017501770BOLIVAR, JAIME                          0012469958003291
101020457780100654433000000017501770CHIRA,  ALEXI                           0012469962003291
001020457700000573210000000017500770MEJIA, JOSE                             0012521591003291
001020457770000351843000000017500770PERALES , YULIMAR                       0012582102003291
001020457770000914468000000017500770GUARAN MU?OZ RAMON HERNANDO             0012628076003291
101020457770100643151000000017501770GONZALEZ, ERMEREGILDO                   0012628150003291
001020457730000919298000000017500770ESTEVES RONDON, FRANCISCO O.            0012628348003291
001020501830007193295000000017500770RAMIREZ I. JUANITA                      0012628558003291
101020501820109401369000000017501770ARANA, BERTHA CECILIA                   0012628614003291
001020457760000288770000000017500770QUINONES RAMIREZ, FEDERICO              0012628637003291
101020457760100644115000000017501770CAMICO HERRERA, MELINO                  0012628773003291
001020466610000099040000000017500770NUNEZ HERNANDEZ PEDRO                   0012628775003291
101020457710100636780000000017501770AGUILAR JOROPA, HERMEN                  0012628791003291
001020457770000785244000000017500770TOVAR SILVA, FAUTINA                    0012628874003291
001020338450000454009000000017500770CHIPIAJE, MARIA EUGENIA                 0012628902003291
001020526320000031914000000017500770GARRIDO ROJAS GERMAN                    0012629623003291
001020457780000073341000000017500770ALVAREZ BALDOMERO, FRANCIA N.           0012629827003291
101020457780100653170000000017501770TINEDO NIEVES PABLO SADOC               0013058100003291
001020457710000393801000000017500770MEDINA TOVAR CAROLAIKA                  0013058409003291
001020457720000545798000000017500770SANCHEZ GAMEZ,CARMEN YRAIMA             0013060358003291
001020698770000121594000000017500770RODRIGUEZ CARRASQUEL, JUAN C.           0013254347003291
001020457720000556431000000017500770BLANCA ALVAREZ, JESUS ALEXANDE          0013325091003291
101020457750100657312000000017501770RODRIGUEZ CALDERON,ELOYNA               0013325129003291
001020457710000743189000000017500770MORALES MORALES, MARIA                  0013325147003291
001020457740000616478000000017500770SANJUANELO YAVINAPE OLIMPIA             0013325187003291
001020457720000744298000000017500770MARTINEZ, PEDRO                         0013389389003291
001020457750000514282000000017500770SILVA PEREIRA, EZZIO ARIMAR             0013558153003291
001020457750000436506000000017500770PEREIRA GARCIA, OVIDIO NICASIO          0013558480003291
001020457710000693077000000017500770PEREZ GONZALEZ, LUIS                    0013578498003291
101020457740100652717000000017501770MARTINEZ Y, CAURENCIO LARE              0013617202003291
001020457700000129583000000017500770PAEZ, PAUL                              0013617317003291
101020457770100060370000000017501770ARAGUA GONZALEZ, ROSITA MORENA          0013714085003291
001020457710000351720000000017500770HERRERA CONTRERA, ABRAHAM               0013714644003291
101020457770100629895000000017501770GALLARDO FRANCO SANIN                   0013714672003291
001020457720000129363000000017500770TOVAR CASTILLO, VERBIS JOSEFIN          0013714880003291
001020457720000820361000000017500770GONZALEZ GONZALEZ, ELEAZAR              0013714996003291
101020457730100655335000000017501770RODRIGUEZ APORTE,JESUS                  0013727898003291
001020457750000666949000000017500770DASILVA YAPARE, DILMA GARLIS            0013964045003291
001020215970000097602000000017500770VERENZUELA PALMA, LUIS EDUARDO          0013964067003291
001020457710000349062000000017500770CLARIN, ANA                             0013964204003291
001020457700000866590000000017500770HERRERA CARRASQUEL, NIEVES              0013964347003291
001020457780000471066000000017500770NIEVES, CRISANTO                        0013964766003291
101020457700100638733000000017501770FLORES BRITO,ALVARO                     0013964972003291
001020457740000084424000000017500770VASQUEZ CUENCA, NARCIBEL                0014027997003291
001020457700000206341000000017500770CELIS ZAMORA LUZMILA DE JESUS           0014187918003291
001020457770000150332000000017500770SANZ, MARELYS                           0014258033003291
101020457740100628207000000017501770CAMICO DASILVA JULIETA                  0014258094003291
101020457700100657041000000017501770ACOSTA BOLIVAR JOSEFINA DEXIS           0014258729003291
001020457700000336703000000017500770IRAZABAL FLORES, EUGENIO                0014258834003291
001020457780000672658000000017500770MATA,  ZULEIMA DEL CARMEN               0014286417003291
101020457760100639867000000017501770TORRELLAS TORRES, EDGAR                 0014510281003291
001020457790000086985000000017500770CALDERON R. YUDISMAR                    0014564103003291
001020457720000041218000000017500770ORTEGA NAVAS KEILA                      0014564547003291
001020457780000559535000000017500770DIAZ ALEXIS ALCIDES                     0014564549003291
001020457710000495440000000017500770RICO MENARE SORAIMA FLOR                0014565135003291
101020457780100061980000000017501770MARQUEZ OJEDA, UECARIS                  0014565183003291
001020457790000093774000000017500770URBINA CASTRO, RONIEW ALISET            0014565608003291
001020457770000162058000000017500770PERDOMO CAMACHO, JANETH J.              0014565684003291
001020457700000286918000000017500770MORENO, KEILA LIDICE                    0014565848003291
101020457720100630878000000017501770NIEVEZ RINCONES, MANUEL                 0014565903003291
001020501890007195219000000017500770PARRA RUIZ, REINALDO                    0014625021003291
001020457700000448918000000017500770REBET VASQUEZ,ANDRES                    0014628734003291
001020457740000851592000000017500770ROMAN, JENSON                           0014636602003291
001020457760000838324000000017500770VINA P. NESTOR D.                       0014637663003291
001020457780000554433000000017500770FLORES SILVA YARITZA MARILEN            0014650491003291
001020457790000560126000000017500770ANDERSON AGUILERA                       0014970285003291
001020457710000196215000000017500770FIGUEROA FLORES, HENRY MANUEL           0015005195003291
001020457720000152741000000017500770MEDINA, HECTOR LUIS                     0015067795003291
001020457750000557472000000017500770PANTOJA JOSE MIGUEL                     0015083452003291
001020457760000610209000000017500770BORGES, ARISTIDES                       0015086110003291
001020457710000284648000000017500770MONTIEL TORRES, JESUS ALBERTO           0015086213003291
101020457780100656537000000017501770DE REMARE YAVINAPE, YODALYS M.          0015086232003291
101020457780100657753000000017501770PALOMEQUE, JUANA MARIA                  0015086610003291
001020457720000693255000000017500770GARCIA PUERTA, DAIRY DAYARITH           0015086854003291
001020457710000447825000000017500770LAYA, ARELIS JOSEFINA                   0015245297003291
101020457740100646822000000017501770RAMIREZ ROSA E.                         0015246199003291
001020633240000107712000000017500770CERMENO, JUAN CARLOS                    0015246932003291
001020457710000212115000000017500770ZAMORA BUITRIAGO, JOSE GREGORI          0015303004003291
001020457760000743228000000017500770GONZALEZ DELGADO, ANTONIO               0015303061003291
001020457720000315999000000017500770DACOSTA MATIAS ALEJANDRO                0015303091003291
001020457780000350912000000017500770SANDOVAL G.CLAUDIA L.                   0015303130003291
001020457730000337511000000017500770GARCIA JAIME                            0015303175003291
001020457760000741026000000017500770HILARIO PONARE, JIMMY                   0015303240003291
001020457780000362395000000017500770PAYEMA NIEVES, EDUARDO                  0015303587003291
001020457780000368357000000017500770RODRIGUEZ MARQUEZ, JUAN                 0015303653003291
101020457760100656068000000017501770GONZALEZ CLARIN, BETTY                  0015303727003291
001020457780000619572000000017500770QUINTO MARCANO, YELKARY                 0015303929003291
101020457760100648987000000017501770CARIBAN DE MILANO,DENISE                0015304019003291
001020457740000492728000000017500770URIBE, YENDRY YARITZA                   0015304032003291
001020457740000019279000000017500770DIMARCO FUENMAYOR, JOHAY P.             0015304073003291
001020457750000080266000000017500770ALVAREZ BALDOMERO, SELVA FANIA          0015304136003291
101020457710100655319000000017501770MORILLO, ZAIDA YUMAR                    0015304304003291
101020457790100643469000000017501770CLARIN GAITAN, LUZMILA                  0015304305003291
101020457780100647854000000017501770HERRERA ESCOBAR, LUIS                   0015304503003291
101020457760100648357000000017501770ESQUEDA LARGO REGNYS OLIVIEL            0015304584003291
001020457770000103415000000017500770ABAD, PETER YONATTAN                    0015304624003291
001020457790000884886000000017500770GALLARDO GAITAN, LUZ MARY               0015304724003291
001020457710000826721000000017500770PESQUERA BLANCO YHONNI A.               0015304830003291
101020457780100647661000000017501770CIPRIANI YANAVE, PILAR JOSEFA           0015499321003291
101020457770100642906000000017501770SUESCUN MEDINA, MADELIN                 0015499357003291
001020457710000351144000000017500770CAMICO M, EUGENIA                       0015499372003291
001020457750000216315000000017500770GARCIA SALAZAR WILDER JESUS             0015499375003291
101020457700100641339000000017501770CUICHE ESCOBAR, NELSON RAFAEL           0015499495003291
001020457700000556004000000017500770PANAMA PONARE LUZMILA LLANEY            0015499508003291
001020457700000598253000000017500770TRUJILLO GLORIA                         0015499716003291
001020457700000430256000000017500770MEDINA ELYS                             0015500002003291
101020457770100051720000000017501770MORENO GOMEZ, ROBERT ALEXANDER          0015500071003291
001020457720000700012000000017500770RINCONES CARVAJAL, KATIUSKA             0015500082003291
001020457720000119836000000017500770YUAVE NANCY                             0015500937003291
001020457730000086778000000017500770NINO MOLINA MARCOS                      0015535760003291
001020105540000366786000000017500770OVALLES PERDOMO, SILVESTRE              0015650776003291
001020466660000429649000000017500770MORILLO SOLORZANO, KASANDRA             0015683942003291
001020312120000018940000000017500770ARELLANO DE PEREZ,  YENDY               0015760103003291
001020457700000590251000000017500770RAMOS RAMOS, DIEGO                      0015936972003291
101020457710100652316000000017501770LARA PEREZ KATIUSKA YANISETH            0015954429003291
001020457750000474270000000017500770GARCIA M. FELICITA M                    0015954484003291
001020457790000859633000000017500770SILVA REYES, FREDDY                     0015954521003291
001020457710000685917000000017500770CARIBAN PONERA, WILFREDO ALIRI          0015954560003291
001020457710000122292000000017500770CARIBAN PONARE, EDGAR ELIOMAR           0015954571003291
001020457750000528456000000017500770LARA DIAZ, NEIDA                        0015954653003291
001020457710000686369000000017500770PONARE, EDGAR DANIEL                    0015954714003291
001020457770000556871000000017500770VENANCIO RIVAS,OSWALDO                  0015954764003291
101020352060100519770000000017501770CABALLERO ROSALES, LEIDY D.             0015954775003291
001020457790000491583000000017500770PEREZ PEREZ NANCY                       0015954790003291
001020457740000482152000000017500770MARTINEZ, ANA YAJAIRA                   0015955372003291
101020457750100643524000000017501770MARTINEZ, NARQUIN DINAIRA               0015955373003291
001020457710000315261000000017500770DE LOS RIOS RODRIGUEZ, BOLPAUR          0015955628003291
101020457710100641736000000017501770LUNA VERA, JUAN BAUTISTA                0015955682003291
101020457760100649749000000017501770GONZALEZ S. JUAN G.                     0015998672003291
101020457780100647160000000017501770MENDOZA SEIJAS, ANA                     0015999458003291
001020457710000420826000000017500770AMARO, INGRI SUGEN                      0016114315003291
101020120920107467746000000017501770ROSALES DE MENA, EDITH Y.               0016259186003291
101020457710100060303000000017501770LORETO RONDON, ADRIAN VICENTE           0016270420003291
001020457730000717173000000017500770SOLANGEL, MAURICIO                      0016272217003291
001020457710000528498000000017500770OJEDA MACHIQUE RAFAEL                   0016504231003291
101020712630100001005000000017501770JIMENEZ ROSA YUSMARY                    0016747491003291
101020457770100655509000000017501770ORTIZ ACEVEDO, OLGA                     0016757897003291
001020457780000444417000000017500770CASTRO DE RODRIGUEZ, BEATRIZ            0016766130003291
001020457730000288343000000017500770RINCONES INFANTE, NORELIS               0016766168003291
001020457740000070975000000017500770QUINONES ZARATE VICTORIA                0016766338003291
101020457750100655026000000017501770EDILIA VIDERA SILVANO                   0016766416003291
001020457780000745527000000017500770ORIVIO LOPEZ, SANTIAGO                  0016766453003291
101020457770100639116000000017501770ROJAS ROJAS, GUSTAVO ISAIAS             0016766495003291
001020457730000496559000000017500770CAMICO CHIPIAJE NEIDA TERESA            0016766537003291
001020457700000575328000000017500770MORALES MORENO, SILVIO                  0016766737003291
001020457760000442684000000017500770MORENO ACOSTA,MIRNA MERCEDES            0016766956003291
001020457770000417114000000017500770CARIBAN, HEIDI DEL CARMEN               0016767137003291
001020457730000316710000000017500770VILLAZANA YANIVAL YIRKA                 0016767225003291
001020457780000684390000000017500770GONZALEZ DELGADO, MATEO                 0016767238003291
001020457780000422756000000017500770MANRIQUE MACURIBANA, AMABLE             0016767515003291
101020457790100657226000000017501770ESCOBAR ANNY ELIZABETH                  0016767914003291
001020457760000626099000000017500770ROJAS SUEZ, ELITZA JOSEFINA             0016767994003291
001020501850000558633000000017500770UGAS LYON, HILDA NAYARY                 0016826148003291
001020457710000552338000000017500770CHIPIAJE FREDY RAMON                    0016975578003291
101020698710100009184000000017501770BEJAS ARANA, SORELYS DE JESUS           0016977994003291
001020457710000917973000000017500770GOMEZ MURILLO, GODOFREDO G.             0016984962003291
001020457710000110314000000017500770URDANETA, ALEJANDRO                     0017023391003291
001020457760000387914000000017500770ESHOWE, MATEO KAHINO                    0017023467003291
001020457780000520959000000017500770PADAMO PADAMO, RAMON R.                 0017023657003291
001020457750000571775000000017500770ASIZA, ZUSANA                           0017105037003291
001020457740000615055000000017500770GONZALEZ MELGUERO FLOR                  0017105088003291
001020457770000696841000000017500770ESPEJO BLANCO, INGRID MILAGROS          0017105131003291
001020457720000336318000000017500770DIAZ ARTURO                             0017105190003291
101020457730100654864000000017501770YARUMARE E. NORIS. M.                   0017105457003291
001020457720000192947000000017500770GUEVARA DIAZ, ALBERTO                   0017105517003291
001020457730000497419000000017500770HOMERA, EDGAR ALEXANDER                 0017105521003291
001020457770000689968000000017500770YAVINAPE, ALFONZO FIDEL                 0017105528003291
001020457780000547644000000017500770GARCIA ARMANDO JOSE                     0017105585003291
001020457700000823724000000017500770CONTRERAS Y. MARCELINO A.               0017105702003291
001020215910000030494000000017500770SALAZAR MARTINEZ, MAIRA I.              0017105731003291
001020457720000403872000000017500770DIAZ, MARIANGEL JOSE                    0017105866003291
001020457760000750499000000017500770YAVINAPE C. YURIMEL D.                  0017105938003291
001020457780000114051000000017500770RUIZ CAYUPARE DAYANA                    0017105968003291
101020457740100652491000000017501770MURILLO CANCIO, ALBERCIO R              0017106206003291
001020457750000416403000000017500770NAVARRO CALDERON, JACKSON J.            0017106237003291
101020457700100640403000000017501770MERIDA, OMAR                            0017106666003291
001020885860007137770000000017500770HERNANDEZ PANAMA,IRENE EDILZA           0017106681003291
001020457730000757382000000017500770MARTINEZ GONZALEZ, MARVELIS I.          0017106738003291
001020457740000432500000000017500770GALLARDO TORRES HUMBERTO                0017106800003291
101020457710100644734000000017501770BOSSIO R. INGRID                        0017106883003291
001020457760000112480000000017500770SANCHEZ BRICENO, MANUEL J.              0017106937003291
001020457770000143462000000017500770PEREZ MORENO,CRISTINA YUVISAY           0017137821003291
001020457770000398385000000017500770APOSTOL ALVAREZ, JHON                   0017149414003291
001020457720000259725000000017500770GUERRA ESPA?A ARELIS MISAY              0017324007003291
001020200140000005885000000017500770MEJIAS HERRERA, JESUS RAFAEL            0017325101003291
101020457740100648375000000017501770BARRIOS MENDOZA, SOL NELITZA            0017325195003291
001020457780000567750000000017500770YENDEZ GONZALEZ, ROSMERY                0017407683003291
001020457710000516934000000017500770PADRON CORRALES,GLENYS                  0017609773003291
001020457780000448659000000017500770PAREDES ESPANA, YDHANA DE J.            0017656746003291
001020457730000617493000000017500770BASTIDAS MARILY COROMOTO                0017675212003291
001020457750000715146000000017500770GONZALEZ, VERONICA VERENICE             0017675295003291
101020457780100653539000000017501770INFANTE MARTINEZ ANGELICA               0017675814003291
001020457720000258784000000017500770CATIMAY, ANA VANESSA                    0017675892003291
001020457700000666499000000017500770DORANTE DORANTE DAISY CAROLINA          0017676129003291
101020457770100650794000000017501770LINARES PADRON, VICENTE                 0017676444003291
101020457710100650047000000017501770COLINA PADRON, ALBERTO                  0017676729003291
101020457720100641363000000017501770CADENA DANIVAL, JORGE EDILMAR           0017676752003291
101020543300100000804000000017501770CHARO PADAMO                            0017676820003291
101020712610100002298000000017501770DASILVA BARRIOS MARLLIS                 0017791081003291
001020457760000463647000000017500770MENDOZA JUNNIOR                         0017915549003291
101020457730100656856000000017501770TABLANTE, MARIA JOSE                    0018050187003291
001020457710000850467000000017500770PEREZ GOMEZ, YARQUELIN                  0018050199003291
001020457790000514473000000017500770PALACIO DE BOLIVAR JULIA                0018050383003291
101020457750100649890000000017501770RIVAS PADRON, ROSEMBERT                 0018050775003291
001020457750000622093000000017500770YAVINAPE, FELIX                         0018050814003291
101020457710100658312000000017501770GARCIA SIERRA, RAMON ALEXANDER          0018051062003291
101020457700100658318000000017501770GARCIA NARCIZO, ROMEIBI A.              0018051142003291
001020457770000641919000000017500770CARDOZO RONDON, PABLO ALI               0018051181003291
001020457780000390312000000017500770ZAMORA SARMIENTO, BASILIO               0018051545003291
001020457770000194136000000017500770COLINA GONZALEZ, RUBEN                  0018051573003291
101020457710100648953000000017501770MATA COLINA, BRICENO                    0018051574003291
101020457770100645580000000017501770ROVENTY, CARLOS OSCANDO                 0018051617003291
001020457730000143268000000017500770MARCHENA GUARAPARE, JOSE R.             0018051745003291
101020457750100646343000000017501770RODRIGUEZ GONZALEZ, PEDRO               0018195236003291
001020457700000597636000000017500770VERENZUELA DUGARTE, JOSE LUIS           0018195947003291
001020457700000515825000000017500770PEREZ GOMEZ, PEDRO                      0018195979003291
001020457710000778727000000017500770MOGOLLON DELGADO, ROSSY                 0018242710003291
001020457710000543745000000017500770MARTINEZ LOPEZ, ADRIANA AZUCEN          0018242770003291
001020457750000046585000000017500770PERALES REQUENA, ALDRIN A.              0018243178003291
001020457750000095219000000017500770COA CHIRINOS, LUCILA                    0018243329003291
101020457700100643303000000017501770ALVAREZ NUNEZ, XIOMARA                  0018243391003291
001020457730000359735000000017500770CABRERA ARACA, KARLA MAIRELYS           0018243494003291
101020457730100650104000000017501770HURTADO YUSUINA BLEYDIS KARINA          0018243541003291
001020457760000417431000000017500770MARTINEZ PEREZ, DANYS CRISTIAN          0018243622003291
001020457710000502278000000017500770QUINTO ROJAS CARLOS G.                  0018243711003291
101020457710100641672000000017501770CARRASQUEL MIGUELANGEL                  0018243779003291
101020457760100650853000000017501770HERNANDEZ ARAUJO ROSEMELY LORI          0018243905003291
001020457710000361477000000017500770GONZALEZ, ANGEL DE JESUS                0018243941003291
101020457710100652890000000017501770NAVARRO SOSA, YANET JOSEFINA            0018327662003291
101020457700100648968000000017501770REYES ROJAS,ANTTONIETA                  0018341648003291
001020457790000771892000000017500770VILLEGAS GONZALEZ, LEIDIZ               0018505206003291
001020457740000114909000000017500770ALAYON TOVAR, LAURE VANESA              0018505271003291
001020457700000059938000000017500770GONZALEZ TRABASILO DALYS                0018505295003291
001020140310000043889000000017500770OLIVARES CHIPIAJE, HILCOS               0018505393003291
101020712630100000596000000017501770GONZALEZ DEXIS                          0018505435003291
101020457760100642008000000017501770CARIAS BASTIDAS, MARVIN JOSE            0018505447003291
001020457760000110602000000017500770OROZCO ALVAREZ YUSMIRIAN                0018505540003291
001020457740000517823000000017500770GARRIDO ARAGUA, EDER EUGENIO            0018505636003291
101020457710100657314000000017501770GUDINO DE R. WILMARI J.                 0018505849003291
101020712630100000565000000017501770MEDINA ARRIETA, DARWIN                  0018505940003291
001020712620000028684000000017500770CAMICO ANGEL RAFAEL                     0018505948003291
101020457720100656641000000017501770ARAGUA OLIVO MAYRA DIANE                0018506036003291
001020457790000503439000000017500770SOLOZARNO RODRIGUEZ,HECTOR              0018506109003291
101020457710100656768000000017501770QUILELLI ESCALONA SORAYA                0018506228003291
001020457770000669140000000017500770YURIYURI YOSUINO, DIANI                 0018506282003291
101020457720100643937000000017501770HERNANDEZ DASILVA, GLADYSMAR Y          0018506337003291
001020457740000617260000000017500770ALAS MIRABAL, ANA KARINA                0018506770003291
101020712660100002239000000017501770RIVERO YUSINO CARMEN                    0018506899003291
001020457740000557870000000017500770ROJAS, NELSON RAFAEL                    0018544084003291
001020457710000752345000000017500770PEREZ CONDE ANDREINA KAREN              0018835025003291
001020457710000405087000000017500770PEREZ PEREZ MIGUEL TADEO                0018835047003291
001020457710000562755000000017500770DACOSTA M, ALEXIS H.                    0018835254003291
101020457720100647163000000017501770ROJAS TORRES,LEIDYS TERESA              0018835292003291
001020457730000495783000000017500770ROJAS MORENO SERGIO                     0018835323003291
101020457790100641768000000017501770FUENTES TESARA YASMIDIS DALIBE          0018835357003291
101020457730100656663000000017501770BUENO GUAPO KARLA ALEJANDRA             0018835562003291
001020457760000442121000000017500770CASTILLO PEREZ, CARMEN LUCIA            0018908905003291
001020457790000920494000000017500770CEDE?O LOPEZ FRANKLI JOSE               0018943830003291
001020457720000350297000000017500770MEREGILDO YUAVE, ARCANGEL               0018967481003291
001020481040000097385000000017500770RODRIGUEZ CORTEZ, CARLOS A.             0019054016003291
001020363500000432403000000017500770FERNADEZ ESCOBAR, FRANK G               0019054028003291
001020358900000136644000000017500770FONSECA CESAR, DANIEL ARMANDO           0019054310003291
001020457710000502922000000017500770MARTINEZ NARVAEZ, NARLYN YASMI          0019054422003291
101020501840109401600000000017501770MENARE L. MARILUZ                       0019054777003291
001020457710000571500000000017500770HERNANDEZ GOMEZ, JESUS ALBERTO          0019054861003291
101020457700100644175000000017501770PINTO RODRIGUEZ, REMIGIO A.             0019055035003291
101020457740100654595000000017501770COLINA, ASIZA OMAR                      0019055303003291
101020457780100649720000000017501770GUZAMANA LOPEZ ANTHONY R.               0019055633003291
001020457720000904096000000017500770ARROYO M. EDWARD M.                     0019055658003291
001020457750000143608000000017500770PACHECO DANIELA                         0019055816003291
001020457790000529099000000017500770MANUARE MANUARE YEGLES YECIRE           0019095776003291
101020457700100642958000000017501770RODRIGUEZ GARCIA, YURNMA Y.             0019167045003291
001020457740000867159000000017500770PEREZ, REINALDO                         0019167592003291
001020457760000517593000000017500770CAMPOS LOPEZ,ANA YULIENI                0019196960003291
001020457720000889373000000017500770SILVA G. GRISELIS M.                    0019250136003291
001020457780000563424000000017500770PEREZ ORTEGA WINDER                     0019352043003291
101020457780100651595000000017501770HERNANDEZ RAMIREZ, MARIA                0019352232003291
001020457740000055084000000017500770RODRIGUEZ LUNA, ALFRED ALEX             0019352241003291
101020457720100651035000000017501770LUGO ABAD, JESSICA ANDREINA             0019352352003291
001020457780000460035000000017500770GOMEZ MURILLO, MARITZA                  0019352573003291
001020457700000554608000000017500770MENARE CAMICO,HUGO ADRIANO              0019352759003291
001020457790000244581000000017500770CARPIO RENGIFO, MICZULEY M.             0019352798003291
001020457760000352046000000017500770JIMENEZ GONZALEZ, MIGUELANGEL           0019352874003291
001020457780000684387000000017500770GONZALEZ DELGADO, MARIANA               0019352889003291
001020457790000662011000000017500770GALLARDO TORRES, MAIRA ANDREIN          0019352930003291
001020730430000050089000000017500770ESQUEDA ECHENIQUE, ANAIS C.             0019401320003291
001020712630000013741000000017500770PERDOMO MELITZA MAYERLING               0019580226003291
001020457770000684141000000017500770CADELES PEREZ, WALDER                   0019580265003291
001020457710000740933000000017500770LOPEZ PONARE, DIANA                     0019580266003291
001020457790000742795000000017500770DELGADO LOPEZ, FATIMA                   0019580289003291
001020457710000500238000000017500770CASTANEDA JIMENEZ, MARIA                0019580447003291
001020457710000214317000000017500770ESPINOZA, YURIS MARIA                   0019580619003291
001020457720000463618000000017500770PAYEMA DE BERNABE, MADELYN Y.           0019580653003291
001020457780000848916000000017500770CARDOZO GAITAN, MARIA CRISTINA          0019580671003291
001020457700000613950000000017500770OJEDA PEREZ, KARLENIS D.                0019580705003291
101020457740100643130000000017501770SANCHEZ OLIVO WILMER                    0019580717003291
001020457750000529154000000017500770LARA DIAZ, NANDRY DULCE MARIA           0019580755003291
101020457730100657506000000017501770ROJAS SILVA, JOHN HELLERI               0019580936003291
001020457730000525378000000017500770DIAZ CARIBAN, CIPRIANO ALFONZO          0019580964003291
001020457750000516646000000017500770ALONZO CANA, JUNEXIS AURIMAR            0019656217003291
001020457720000507312000000017500770CABALLERO RAMIREZ,ABEL                  0019656429003291
001020457700000385903000000017500770CASTILLO ADRIANA                        0019805016003291
001020457750000580847000000017500770MORILLO GOMEZ ALIER ANGEL               0019805243003291
101020457750100644785000000017501770NOGUERA ALVAREZ, ANA MARIA              0019805289003291
001020457730000517975000000017500770RAMOS ROJAS, FRANK ROEL                 0019805327003291
101020457760100653722000000017501770HURTADO SOLANO, ROSA                    0019805455003291
001020457700000285252000000017500770SILVIA LOPEZ,DORIANNYS                  0019805512003291
101020457710100652016000000017501770BONILLA BLANCO, BEATRIZ A.              0019805675003291
001020501800007214844000000017500770BLANCO CH. ELIDA                        0019805767003291
001020457700000303846000000017500770ARROYO RIVERO, NIMYS YULIANNYS          0019805983003291
101020712610100002410000000017501770PEREZ RODRIGUEZ MAHOLY                  0019872337003291
001020457790000918325000000017500770ORIVIO GOMEZ, ALFONZO                   0020018080003291
001020457730000771685000000017500770RODRIGUEZ GARRIDO, ROSALBA              0020018099003291
101020457780100656988000000017501770VENANCIO RIVAS,NASAIRA                  0020018337003291
101020457760100646348000000017501770LOPEZ LOPEZ, SERGIO                     0020018515003291
001020712610000038522000000017500770BRISENO LAROSA BRIGIDA                  0020018780003291
001020457730000555254000000017500770ACOSTA CASTILLO, DIXON JOSE             0020018800003291
001020557380000006253000000017500770MAGO REINA, RAFAEL GUAICAIPURO          0020018983003291
001020457700000598981000000017500770VEGA NIEVES, ROGELIO                    0020019238003291
101020457700100650378000000017501770MUNDARAIN, CLAUDIO                      0020019304003291
001020457750000286073000000017500770NIEVES ESCOBAR, FRANKILN A.             0020019310003291
101020457770100643747000000017501770PINATE, PATRICIA ANDREINA               0020019334003291
001020457720000380416000000017500770GUILLEN ARMANDO                         0020019375003291
001020501850007214239000000017500770TOVAR A. DAYANA Y.                      0020019597003291
001020457720000447922000000017500770ADARO ARVELO, JOSE FIDEL                0020019662003291
001020457740000795153000000017500770SILVA ROSALES, RENE REINALDO            0020019688003291
001020457740000238937000000017500770PESQUERA B. JENIFER P.                  0020019777003291
001020457700000359379000000017500770AGUILAR RANGEL EMILY EDECIA             0020042039003291
101020457750100654104000000017501770SANDOVAL LUCILA                         0020436112003291
001020457780000393694000000017500770OCHOA MARQUEZ, ALFREDO                  0020436304003291
001020457720000420266000000017500770SALCEDO HERNANDEZ, NEMESIS              0020436475003291
101020115290100059624000000017501770JORDAN RIVERO HERMINIA S.               0020436893003291
101020457770100649094000000017501770CUBILLOS RINCONES, ORQUIDEA V.          0020436975003291
101020457750100653390000000017501770ALVAREZ MENDEZ, LAYDETH                 0020436998003291
101020457710100647799000000017501770PANCHO PANCHO DIEGO                     0020437060003291
101020457740100654385000000017501770MUNOZ, ALAN                             0020437096003291
101020457770100657650000000017501770YANEZ GONZALEZ, HERNANDO J.             0020437140003291
001020457780000549846000000017500770CORREA O. ROSA M                        0020437196003291
101020712610100002110000000017501770BLANCO MONTOYA SANDYS                   0020437265003291
101020457750100645967000000017501770CONDE ORTIZ, YUREBA IZANA               0020437550003291
001020457790000942320000000017500770GARCIA GARCIA, CARLITOS                 0020437646003291
001020457760000249256000000017500770SALAZAR RAMIREZ, ODELY MIRNA            0020437749003291
101020457710100645499000000017501770CALDERA ALVAREZ, JHOANNA                0020437858003291
001020457730000970512000000017500770HERNANDEZ G. RUBI                       0020437904003291
001020363500000054454000000017500770OMANA ROJAS, WENDY JOHALDRY             0020475141003291
101020457740100654287000000017501770BRITO SANTANA, KATELYN J.               0020494865003291
001020712680000010388000000017500770JARAMILLO NIURKA YULIBET                0020495669003291
101020466650100065268000000017501770LOVERA FAIRY JESSENIA                   0020523422003291
001020457750000856377000000017500770FILGUERA, JONNY ARGENIS                 0020557730003291
101020457790100649465000000017501770NAVAS YUSUINO, ANA CECILIA              0020720044003291
101020457760100653669000000017501770LOPEZ LOPEZ, AMARIO                     0020720137003291
001020457710000398505000000017500770ALVAREZ PONARE, YOSELKY YOLEID          0020720179003291
001020457730000428844000000017500770GALLARDO LUNA, JOSE OMAR                0020720319003291
001020457720000374079000000017500770YAVINAPE, IRENE ANAYARI                 0020720533003291
001020457760000662875000000017500770FUENMAYOR S. AURA. E                    0020720705003291
001020457780000749125000000017500770PEREZ, DENIS                            0020720714003291
001020457780000420716000000017500770SALCEDO HERNANDEZ, YENSI I.             0020720779003291
101020457730100657537000000017501770CARIBAN, NAIL CELMIRA                   0020720796003291
001020457710000482770000000017500770ROJAS SINIVA,RICHARD JAVIER             0020720909003291
001020457730000482550000000017500770PEREZ GOMEZ, LUIS FRANCISCO             0020720931003291
001020457700000590895000000017500770MARTINEZ GARRIDO, YOLANDA               0020720992003291
001020457790000231426000000017500770RUIZ A. ABEL V.                         0020721338003291
001020856420000102775000000017500770AZABACHE SHIRLEY                        0020721439003291
001020457710000447993000000017500770MARTINEZ RODRIGUEZ,JOSE MANUEL          0020721644003291
001020457750000641582000000017500770GARCIA, YESSIKA MARIA                   0020721809003291
001020854830000022473000000017500770ZAPATA C. YELIFER D.                    0021004648003291
001020457720000408893000000017500770ZURITA MARQUEZ, ADRIANA A.              0021107190003291
101020457740100647419000000017501770AGUILAR ALVAREZ, VIRGINIA M.            0021107315003291
101020457700100647240000000017501770ALVAREZ BETANCOURT JHONNY A,            0021107476003291
101020457790100657467000000017501770MARTINEZ YARUMARE, DANIELA              0021107581003291
001020457790000393539000000017500770LOPEZ CAIDANA, EDDI ARMANDO             0021107984003291
001020712650000042123000000017500770MARINO BONILLA ELOY                     0021108188003291
001020457710000524337000000017500770SANCHEZ GUERRERO, LINA                  0021108945003291
101020200100100003045000000017501770MENDOZA MENDOZA, NANCY A.               0021507539003291
001020457740000425546000000017500770YAVINAPE TAPO JOHANNA                   0021547069003291
001020457740000761679000000017500770ABAD DIAMON DAIRI CAROLINA              0021547151003291
001020147110000055932000000017500770CESAR ARVELO, MARCEL EDGARDO            0021547299003291
001020457730000515045000000017500770RUIZ ALONZO, DAYMAR ALEJANDRA           0021547404003291
001020457740000192879000000017500770CASTILLA RESTREPO, DORIS                0021547828003291
001020457780000756558000000017500770MORALES GONZALEZ, NORALBA               0021547839003291
001020457750000762869000000017500770LOPEZ PONARE, MAYERLIN YASNEIL          0021547846003291
101020457740100656962000000017501770RUIZ SILVANO, ANGELICA LISANDR          0021548075003291
001020457750000447456000000017500770GARCIA GAITAN,JIMMI                     0021548202003291
001020457710000506601000000017500770CABALLERO PEREZ JOSE F.                 0021548229003291
001020457750000258483000000017500770URBINA M., ALIANA                       0021548379003291
101020457770100652576000000017501770CASTILLO BOLIVAR, RAMON                 0021548605003291
001020457730000883502000000017500770CORREA SANCHEZ, JHONDEIVIS              0021548705003291
001020457710000592217000000017500770CARIBAN FUENTE YANEYDY ADELCY           0021548800003291
001020457740000556282000000017500770NAVAS MARIA PILAR                       0021549046003291
101020457730100658204000000017501770PEREZ GONZALEZ, LISANDRO A.             0021549576003291
001020103980000440990000000017500770GARRIDO DAVALILLO, FRANCISCO            0021549969003291
001020467450000604891000000017500770DIAZ GUANNI                             0021605409003291
001020457790000543648000000017500770ORTEGA VILLAZANA BISMAR                 0021789035003291
001020317190000423726000000017500770AGUIAR RIASCO, BETZABETH K.             0022220003003291
001020457730000511609000000017500770MONASTERIO MOTA, LEONELIA NAIR          0022533300003291
001020457780000128791000000017500770BALTA, ELBA TERESA                      0022568734003291
001020457700000546797000000017500770URBINA FIGUEROA LUIS ENRIQUE            0022807088003291
001020457710000686217000000017500770FUENTES ARADE, YUSSET AREANA            0022807106003291
101020712620100002020000000017501770MENDOZA MENDOZA JOSE GREGORIO           0022807306003291
101020457710100652526000000017501770VERDUGO ALFONZO, ANTONIO                0022820145003291
101020457780100652830000000017501770MATUTE ADRIANA YSABEL                   0022882636003291
001020457760000463650000000017500770ROJAS NOHELYS                           0022930618003291
001020457790000398644000000017500770GOMEZ DADURE, CINDY NORANGEL            0022930685003291
101020457790100652446000000017501770RIVAS GUARULLA, GRACIANO                0022932471003291
001020457730000527745000000017500770FERNANDEZ ESCOBAR, MELVIN               0023646050003291
001020457770000516581000000017500770PEREZ CAMICO MARIA DEL CARMEN           0023646285003291
001020457760000833303000000017500770ROJAS MIRABAL, EDWARD JOSE              0023646392003291
001020457780000557896000000017500770MARTINEZ CHIPIAJE YOLIMAR               0023646674003291
001020457770000553243000000017500770GARCIA R, MARJORI G.                    0023646722003291
001020457760000815965000000017500770VALERIANO PONARE ANGEL REQUENA          0023646898003291
001020457760000623445000000017500770SOTILLO CANAS, ARIADNA                  0023647017003291
101020457730100654881000000017501770CATIMAY GARCIA JOSE DANIEL              0023647102003291
101020457710100648516000000017501770CUICHE PAYEMA,DIANA                     0023647311003291
101020457700100655371000000017501770GONZALEZ LUNA, RAIDYS ANDREINA          0023647354003291
001020457790000449124000000017500770NAVAS PAYEMA WILSON RAMON               0023647668003291
101020457710100657306000000017501770CHIPIAJE GARCIA ELBA LILA               0023647712003291
001020457710000504153000000017500770BARRIOS SILVA, YARIMA RENILIZ           0023647745003291
101020457710100651559000000017501770ALVAREZ CHIPIAJE, LAURA C.              0023647773003291
001020457700000616038000000017500770MIRABAL DASILVA ADRIAN                  0023647943003291
001020457740000553382000000017500770LOZANO GONZALEZ, JONATHAN               0023696221003291
001020457760000496423000000017500770CANA PEREZ OVELYS YANETH                0023985006003291
001020457740000597267000000017500770ZAVARCE ALVAREZ SHIA                    0023985251003291
001020457700000851877000000017500770MENDOZA ASIZA, CRISANGELA               0023986651003291
001020147110000102814000000017500770IZQUIERDO LARA, JOSE GREGORIO           0023986902003291
101020457790100654018000000017501770SANCHEZ GUERRERO CLARA                  0023987320003291
001020457700000545455000000017500770PEREZ PEREZ,CURASIRI                    0024127507003291
001020457750000489786000000017500770GOMEZ CARIBAN, EUDY ELEAZAR             0024127811003291
001020457750000652937000000017500770PEREZ PONARE, WILSON ROGELIO            0024127818003291
001020457760000695648000000017500770URIBE URIBE, EDIDSON                    0024127823003291
001020457770000915250000000017500770YANAVE C. MARIA D.                      0024127935003291
001020457720000517564000000017500770RODRIGUEZ S. NIRMA I.                   0024127972003291
001020457710000252010000000017500770LOPEZ L. JOSE A.                        0024127988003291
001020457710000612207000000017500770ESCORCHE  A. DELIA D.                   0024128015003291
001020457750000404431000000017500770SOLORZANO E. WILMARY A.                 0024128028003291
001020457740001084096000000017500770RODRIGUEZ R.DISNEY A.                   0024128086003291
001020501850007193800000000017500770TOVAR A. ALMALY                         0024128114003291
001020457710000445225000000017500770PADRON E. JOSE A.                       0024128146003291
101020457700100657430000000017501770DOMINGUEZ,MARCO FIDEL                   0024128435003291
001020225600000153708000000017500770TINEDO PESQUERA, NELSON JOSE            0024128511003291
001020457790000448510000000017500770PRIETO PONARE, GLEISMAR S.              0024128679003291
001020457790000662008000000017500770OLIVEROS MURE, CLEIMAR A.               0024128716003291
001020457770000747156000000017500770ALVARADO CASTILLO, MARIA                0024539577003291
001020457740000496892000000017500770SOSA, JHONATHAN JOSE                    0024677244003291
001020457710000591690000000017500770PEREZ FLORES, CAYNNA                    0024677386003291
001020457700000455464000000017500770SOSA JIMENEZ, ANGEL ANTONIO             0024677458003291
001020457730000620202000000017500770FUENTES ARANA, SANTRISH                 0024677742003291
001020457710000439613000000017500770RODRIGUEZ RIVAS,  YOSELYN               0024677874003291
001020457760000525080000000017500770CAMICO, MARIELIS CAROLINA               0024678183003291
001020457730000423580000000017500770VALERA PESQUERA,GENESIS MARIA           0024678425003291
001020501840007195507000000017500770ARANA LANDAEZ TANIA                     0024678726003291
001020457720000775843000000017500770RODRIGUEZ V. MAURIS A.                  0024892308003291
101020712660100004640000000017501770MILLAN CADENA ARQUIMEDES JOEL           0025005135003291
001020457780000556554000000017500770MIRABAL DE LOS R., MAOTSELIA G          0025054077003291
001020116120000250326000000017500770SALAZAR G. DIHOMERLYS                   0025054408003291
001020457780000608457000000017500770PEREZ RIVAS SERGIO EDUARDO              0025054757003291
001020457710000498502000000017500770LINARES YANAVE JHENDERLY G.             0025054921003291
001020457780000503112000000017500770LARA TOVAR , ISAURA MARIBEL             0025240479003291
001020457700000547657000000017500770FARFAN GONZALEZ, OLIMPO G.              0025275500003291
001020457740000418919000000017500770GUDINO CAMACHO,GLAYSIRIS                0025275766003291
001020457780000907446000000017500770URIBE Y. YEIFER E.                      0025275883003291
001020457710000600882000000017500770ORTIZ PEREZ, ADELAIDA M.                0025275913003291
101020457700100651210000000017501770MISCIA FUENTES,YORVIS RUBEN             0025532562003291
001020457750000687915000000017500770MEDINA G. YOSBEIDI M.                   0025585060003291
001020457700000247083000000017500770SALAZAR RAMIREZ, YOSELYN A.             0025585244003291
101020457770100657941000000017501770DIAZ SILVA, DILCEN DEL VALLE            0025585661003291
001020457740000545332000000017500770GOLINDANO NIEVES,DARWIN                 0025858700003291
101020457710100657452000000017501770MOTA M. MARIA L.                        0025585813003291
001020457750000722016000000017500770ARANGO, LUIS FERNANDO                   0025734318003291
001020457720000384661000000017500770AREVALO DIAZ,BLANCA NIEVES              0025734715003291
001020457710000506517000000017500770AVENDANO GONZALEZ, YOSMAN               0025734995003291
001020457730000432005000000017500770CARDENAS PALMERO, CARMEN                0025756121003291
001020457760000823290000000017500770GOMEZ ZURUTA JOSUE YAMPHIER             0025830255003291
001020457750000685629000000017500770GOMEZ CARIBAN, RONAL                    0025830784003291
001020457700000367028000000017500770CARRILLO RODRIGUEZ, VICTOR              0025830865003291
001020457790000742070000000017500770PONARE PONARE, YOLIMAR YECENIA          0025901793003291
001020457750000749345000000017500770GAITAN REYES, CRISBEL                   0025901794003291
101020457780100655999000000017501770NAVAS CHIPIAJE,NILSA LUZMARI            0026013264003291
001020457750001009356000000017500770RODRIGUEZ L. KARLY M.                   0026013695003291
001020501810007195646000000017500770GARCIA S. YASMELY                       0026013753003291
001020457710000815842000000017500770TOVAR G. JENNER I.                      0026013770003291
001020457770000812104000000017500770PONARE P. JOSE                          0026013771003291
001020457740000824215000000017500770PONARE Y. CELESTE R.                    0026013773003291
001020457730000979212000000017500770ORTIZ M. FLORELY                        0026013801003291
001020457730000416953000000017500770BIFANO PEREZ RUSSEL                     0026013803003291
001020501870007213641000000017500770RODRIGUEZ M. JANET                      0026013828003291
001020501810007213667000000017500770PONARE M. GLENNY T.                     0026013851003291
001020457750000873020000000017500770ALFONZO BRITO DANIELA PATRICIA          0026083617003291
001020457770000193438000000017500770GAITAN LARA,DILVIS BRISEYDA             0026083669003291
001020457710000556981000000017500770PEREZ RIVAS NILERIO J.                  0026083824003291
101020457790100652558000000017501770NAVAS MUNOS,YOHANA EDELIMAR             0026083838003291
001020457720000792318000000017500770ARANGUREN C. ROBERTO J.                 0026184022003291
001020457720000569583000000017500770INFANTE MIRELIS, ARELIS A.              0026184249003291
001020457700000810410000000017500770CHIPIAJE R. DAILY                       0026184286003291
001020457760000752222000000017500770SILVA ESTRADA, TANIA CAROLINA           0026184432003291
001020457780000403351000000017500770GARCIA RIVAS,KIMBERLYN                  0026184691003291
001020457750000692256000000017500770ARROYO FERNANDEZ, JENIFER DEL           0026184699003291
001020457750000665610000000017500770ARMAS BELISARIO, ALCIDES ADRIA          0026184818003291
001020457710000392860000000017500770AGUILAR GUEVARA, JESUS ALBERTO          0026184907003291
101020457770100658118000000017501770CAMICO SANCHEZ, EDDY ANTONIO            0026321219003291
001020466670000492113000000017500770AGUIRRE YARUMARE, DARWIN                0026328546003291
001020457790000562247000000017500770CAYUPARE QUINONES, OWENS I.             0026542287003291
001020457710000441300000000017500770GUERRERO HOMERA, WILFREDO               0026542405003291
101020457750100657746000000017501770RODRIGUEZ CARIBAN,MIGUEL                0026542410003291
001020457770000385068000000017500770CARRASQUEL RIEVERO, SUSANA              0026542465003291
001020457770000419882000000017500770QUINTERO PEREZ, ANGELICA                0026542479003291
001020457740000363873000000017500770CARDOZO, ALIRIO                         0026542741003291
001020457730000669027000000017500770COLINA, ENDRI RIGOBERTO                 0026664106003291
001020457760000603423000000017500770CALLEJE G. DAIMARA D.                   0026664181003291
101020457780100656263000000017501770CAYUPARE MARTINEZ, JORGE                0026664366003291
001020457780000562483000000017500770RENGIFO ESCALONA MERCEDES               0026664508003291
001020457740000412148000000017500770TORRES GUTIERREZ, NAZARETH A.           0026754097003291
001020457780000514062000000017500770GAMBOA CAICEDO, HUBERT EDUARDO          0026754108003291
001020457700000605010000000017500770YAVICO M. ALEJANDRA                     0026754259003291
001020457720000493976000000017500770GONZALEZ, ALCIDE JUVENAL                0026837702003291
001020457720000728764000000017500770MERMEJO TOVAR ERLINDA                   0026965335003291
001020457740000689625000000017500770LEON DIAZ, MARIA VALENTINA              0026965365003291
001020457760000560508000000017500770LOPEZ PANCHO, ELIZABETH                 0026965414003291
101020457700100656195000000017501770CARRILLO ORIBIO, TSAMAY ELENA           0026965733003291
001020457710000513393000000017500770GUAPE BOBADILLA CAROSLAY                0027066118003291
101020457720100654064000000017501770LOVERA GOMEZ VICTOR                     0027066354003291
001020457730000688189000000017500770CALDERA ALVAREZ, MAYRA A.               0027066488003291
001020457740000505767000000017500770CESAR ORTEGA JILLARY EILLEN             0027066555003291
001020457770000822437000000017500770CHIPIAJE, SANDRA BERONICA               0027066579003291
001020457740000393827000000017500770CONDE NIEVES, ADRIAN                    0027066797003291
001020457710000811202000000017500770RIVAS P. CARLOS M.                      0027224275003291
001020457710000847603000000017500770CHIPIAJE F. DIANA D.                    0027224284003291
001020501890007195060000000017500770ARANA A. ENERLIN B.                     0027224296003291
101020457740100654449000000017501770VENECAS RODRIGUEZ, ISMELKY              0027224469003291
101020457730100652175000000017501770GONZALEZ CAMPOS JOSE                    0027224721003291
001020346540000821124000000017500770DORTA BARRIOS, NELSY NOHEMY             0027224777003291
101020457790100654651000000017501770CABELLO FLORES, REBECA                  0027365630003291
001020457750000439163000000017500770PEREZ RODRIGUEZ NEREIDA ESTELA          0027365719003291
001020457700000856092000000017500770GOMEZ MURILLO, EDELXON EDUIN            0027365967003291
101020457700100656648000000017501770GUAPE CARRASQUEL, MARIANYER             0027365970003291
001020712600000053840000000017500770PIMENTEL GARCIA JESSICA                 0027417255003291
001020457780000623461000000017500770MISA MENDOZA, ASHLEY MARIANA            0027456172003291
101020457750100657956000000017501770GUILLEN GUEVARA, LUZ MARY               0027489034003291
001020457710000809997000000017500770PEREZ OLIVARES, MARIANNY E.             0027489180003291
001020457760000580614000000017500770MARCHAN GONZALEZ, LUIS FELIPE           0027489619003291
001020457740000409847000000017500770MUNOZ TOVAR, YOAN FRANCISCO             0027489621003291
001020457790000589495000000017500770AGUIRRE GOMEZ, JOEL JOSE                0027489681003291
001020457760000688053000000017500770ROSALES SEIJAS, JORGELYS G.             0027534309003291
001020457710000440204000000017500770MARTINEZ CHIPIAJE, ABEL                 0027534761003291
101020457700100653359000000017501770CUBAS R. JOSE. A                        0027640074003291
101020457780100654612000000017501770ROMERO TOVAR, JOSE RICARDO              0027640176003291
001020457710000787721000000017500770FERNANDEZ ESCOBAR, DENNYS M             0027645185003291
001020457710000521686000000017500770RODRIGUEZ DIAZ, YOHANDRY G.             0027645618003291
001020457760000569130000000017500770OLIVARES JIMENEZ, MARIA JOSE            0027727019003291
001020457740000685946000000017500770MARTINEZ CAYUPARE, DIRIANNYS            0027727097003291
001020457760000797614000000017500770TORREZ VILLANUEVA, ODALIZ               0027727474003291
101020457720100656588000000017501770GAITAN J. JHON A.                       0027727516003291
001020457710000689997000000017500770MORILLO POLANIA, ELIGIO NICANO          0027740857003291
001020457760000611635000000017500770CARIBAN CARIBAN, DENIS JESUS            0027740974003291
001020457730000384182000000017500770CUELLO NAVAS, GREGORIO G.               0027901679003291
001020457710000448044000000017500770RODRIGUEZ RODRIGUEZ, ALBERTO            0027901793003291
001020457720000563699000000017500770GUAPO FLORES, JOSE GREGORIO             0027950045003291
001020457710000653279000000017500770ALVAREZ ARANA, BETZAIDA                 0028118270003291
101020457770100658121000000017501770GONZALEZ GUERRERO MICHELE               0028212403003291
001020457710000411262000000017500770FERMIN GONZALEZ, EDGARDO A.             0028212414003291
001020457790000664132000000017500770CORDERO CABAVANA, JHONNY DE J.          0028269530003291
001020457720000808419000000017500770AGUIRRE GAMEZ, JORDAN JOEL              0028269581003291
101020501870109401635000000017501770CUANTINDIOY, CARLOS ENRIQUE             0028269650003291
001020457770000665623000000017500770AMUNDARAIN MARIELIS                     0028269863003291
001020457730000767071000000017500770ESTABAS LADINO, ROXIBEL A.              0028348043003291
001020457710000667207000000017500770INFANTE LINARES JHON A.                 0028348198003291
001020457720000506614000000017500770ROJAS SOLORZANO,MARIS                   0028348475003291
001020457710000654375000000017500770CADENAS BAYONA, MARY SAMANTHA           0028370084003291
001020457760000684374000000017500770PEREZ, NELSON RODOLFO                   0028370156003291
001020333310000433114000000017500770MANIA CORREA, EIGREMAR L.               0028370183003291
001020457760000749112000000017500770SALAZAR RAMIREZ HEMING                  0028370326003291
001020457750000890304000000017500770GUERRA MOTA JORKY HAROL                 0028370435003291
001020457750000519711000000017500770GAMBOA TORREALBA, INGRID M.             0028559247003291
001020501870006904265000000017500770ALMEA HERRERIDIA, FREYLIMAR             0028559357003291
101020457700100650574000000017501770AGUILAR GARCIA, YEISY JOHANA            0028559393003291
001020457720000789936000000017500770QUINTO R. CESAR A.                      0028612569003291
001020457760000661368000000017500770PINA MORILLO, GEIXANIEL                 0028612613003291
101020457760100653199000000017501770HERRERA JARA, HERMES                    0028622449003291
101020457700100657766000000017501770LOPEZ GIL, MARIAN ROSA MISTICA          0028654766003291
001020457790000878960000000017500770ENRIQUE URRIETA JAVIER                  0028761817003291
101020712690100003316000000017501770GARCIA HERNANDEZ DARIANNY CARO          0028783134003291
001020457750000973263000000017500770ROJAS PAREDES, RUSSARQUIS N.            0029547808003291
001020457710000571335000000017500770GONZALEZ RIVAS, FRANCISCO B.            0029878057003291
001020457720000664404000000017500770CLARIN ROMERO WUIDELFI                  0029878182003291
001020457710000735223000000017500770ALVAREZ DOMINGUE, ANAHIS                0029878686003291
101020501870109401540000000017501770CUPIDO RODOLFO                          0029878828003291
001020457720000592877000000017500770BASTARDO MEJIAS, ARIANNYS               0029878894003291
001020457750000855035000000017500770GONZALEZ MUJICA, ANA                    0029878948003291
001020457710000800077000000017500770PUERTA MELGUEIRO, CRUZ DEL V.           0029937112003291
001020457710000856270000000017500770LOPEZ FEDERICO, EVELI MELANI            0029937319003291
001020457730000720610000000017500770CORASPE S. ANTHONY A.                   0030100068003291
001020457770000647395000000017500770GAMEZ CASTILLO, JOSE GREGORIO           0030100130003291
001020457770000582984000000017500770JIMENEZ SANTIAGO                        0030100471003291
001020457750000766386000000017500770ATAGUA CALDERON, ABRIEL ANTONI          0030100613003291
001020457740000921558000000017500770CELIS QUILELLI YOSMARLIS SARAI          0030100710003291
001020457760000783275000000017500770MEDINA MEDINA, YORBIS A.                0030100921003291
001020457790000624813000000017500770CAMACHO DELGADO, ELIAN DAVID            0030100961003291
001020457780000713368000000017500770RODRIGUEZ CHACON MARIANO JOSE           0030332575003291
001020457720000914109000000017500770CAMICO T. ROER CRISTIAN                 0030332602003291
001020457750000663968000000017500770HERRERA CABABANA, XADDIEL               0030332753003291
001020457750000692418000000017500770LOPEZ,  IRENE                           0030492459003291
001020457770000870861000000017500770ROMERO C. JUAN C                        0030492935003291
001020457710000671507000000017500770GOMEZ MENDEZ, ROBERT ANTONIO            0030690674003291
001020457710000670812000000017500770TOVAR INFANTE, DITTCELI G.              0030690687003291
001020457780000667508000000017500770ESTEVES RODRIGUEZ JOSIE                 0030691140003291
001020457710000886619000000017500770LESMES AZAVACHE, KARLA                  0030691195003291
001020501800007213256000000017500770BOLIVAR YORDAN J                        0030845873003291
001020457750000738068000000017500770DIAZ URIBE, JOSE                        0030846472003291
001020457760000728311000000017500770BOLIVAR GONZALEZ, DAILIS                0030915138003291
001020457780000753823000000017500770CARRASQUEL ULEGELO VICTOR               0031019055003291
001020457760000786984000000017500770MORENO TRABASILO, DERLINIS E.           0031113704003291
001020457790000846154000000017500770CLARIN R. WILFRAN C.                    0031216939003291
001020457720000885050000000017500770VELAZQUEZ B. SASHATH M.                 0031216960003291
001020457760000663573000000017500770MEDINA GARCIA MARIA ALEJANDRA           0031217181003291
001020457730000873732000000017500770GUAPE M. GENESIS                        0031258461003291
001020457750000687025000000017500770YANAVE LOZADA CAROLINA                  0031328562003291
001020457750000915881000000017500770GARCIA ALVARADO, IGNALLY J.             0031328916003291
001020457750000868187000000017500770MEDINA MEDINA ROSA ANGELICA             0031477232003291
001020457790000859387000000017500770GARCIA C. SOLIANNY E.                   0031773965003291
001020457700000887634000000017500770PERDOMO RATTIA, WILEXYS                 0031773971003291
001020457750000900197000000017500770BERMEJO Y. ALEXIS M.                    0032259472003291
001020457710000484326000000017500770LAGE DE ARAGUA, GUIANEYA                0084581748003291
001020457740000427829000000017500770PI?ATE SALDE?O ZORALIS A.               0017676206003291
001020457780000164027000000017500770RODRIGUEZ FERMIN LUIS ANGEL             0019805211003291
001020457740000899402000000017500770LOPEZ GARCIA RUBYS                      0027496295003291
001020457710000869665000000017500770MALDONADO NAPOLEON MARICELA             0025734938003291
001020457790000569473000000017500770QUERO DACOSTA CANDIDO FRANKLIN          0025275666003291
001020457700000461801000000017500770GAITAN GAITAN MARIA GREDY               0017675799003291
001020457740000768339000000017500770MORENO MORALES LUISA YANINA             0025830765003291
001020501850007215021000000017500770INFANTE GAITAN HERNAN                   0015499857003291
001020457790000902674000000017500770DIAZ PONARE YELITZA VALERIA             0031113907003291
001020501850007194896000000017500770YUAVI CONTRERAS ZULEIMA YARICE          0026013766003291
001020457750000939579000000017500770VALERIANO MAENDEZ ANTONIO               0027534032003291
001020457750000948816000000017500770MENDEZ RIVAS NUVIA                      0021107732003291
001020457790000948845000000017500770GARCIA MENDEZ HERMELINDA IRIS           0033823457003291
001020457720000906298000000017500770ZAPATA CASTILLO JUANA ABIGAIL           0030595209003291
001020457750000909143000000017500770DORANTES DIAZ ANDRES FELIPE             0023647164003291
001020457740000958660000000017500770SILVA JIMENEZ FRANCI CAROLINA           0026754115003291
001020457720000484419000000017500770LARROSA RIVAS JOSE RAMON                0020018913003291
101020457790100645075000000017501770MENDOZA ARANA ALEXANDER                 0019805108003291
001020457760000243537000000017500770LOYOLA LEDEZMA NORA CELENA              0026013573003291
001020501840007213696000000017500770LOYOLA LEDEZMA FREDDY JOSE              0028269673003291
001020457750000839983000000017500770PRATO RODRIGUEZ MARILUZ                 0027224342003291
001020457700000421427000000017500770CANCIO SILVA YENNY MARLENY              0015954884003291
001020457770000962164000000017500770PEREZ PEREZ YSMENIA                     0012469119003291
001020457790000849300000000017500770PINEDA SANOJA ANDERSON ALEXAND          0027727587003291
001020457770000960852000000017500770ARANA ARANA RAFAEL ENRIQUE              0010605411003291
001020501870007213722000000017500770MENDOZA ARANA RICHARD                   0026438956003291
001020457710000212924000000017500770CAMICO CAMICO JUAN LUIS                 0021549083003291
001020501890007194359000000017500770DIAZ MARTINEZ GILBERTO                  0020720676003291
001020501800007194126000000017500770LEON OVIEDO FREIDA MERIBET              0019326312003291
001020457780001082250000000017500770MACHADO CLARIN KARLA ELIZABETH          0027489036003291
001020457710000622789000000017500770BLANCA RODRIGUEZ MARIA ISABEL           0021548710003291
001020501840007214394000000017500770SANCHEZ MENDOZA GRISEL                  0028559085003291
001020457710000960959000000017500770SANCHEZ MENDOZA MARISOL ROSA            0021789232003291
001020501830007213531000000017500770ARANA MARIA LUISA                       0010024115003291
001020457720000623173000000017500770RITA SANCHEZ CARIBAN                    0024127971003291
001020501810007196739000000017500770LAURA ENELCY GARCIA CHIPIAJE            0028513837003291
001020457730000916725000000017500770ANTONIO AURELIANO ZURIBISANA R          0017105857003291
001020457770000759131000000017500770XIOMARA DEL CARMEN RODRIGUEZ Y          0027489339003291
001020501810007213272000000017500770ANGELA MARIA CHIPIAJE                   0030846767003291
001020457770001022249000000017500770FELIX CARRILLO                          0010605158003291
001020457730000803731000000017500770CHEO CASTILLO MARTINEZ                  0029937133003291
001020457710000801665000000017500770THAILER JHONCAR URIBE CAYUPARE          0031939014003291
001020457770000622187000000017500770PERDOMO NILSA                           0015304237003291
001020457730000369987000000017500770REINALDO DARWIN LINARES PADRON          0017676446003291
001020457720000611606000000017500770JOSE GABRIEL MATA GARCIA                0015086076003291
001020457770000207094000000017500770JUNIOR ANTONIO SALAZAR PEREZ            0021548511003291
001020457710000493730000000017500770ROSAURY ANAIS SALAZAR PEREZ             0023987309003291
001020457780000905969000000017500770 SILVA CARIBAN AMELIA                   0018050572003291
001020501850007213625000000017500770CARDOZO GAVINI RONALDO MARTIN           0026013725003291
001020501810007214608000000017500770 GAVINI MEDINA CARMEN                   0019580685003291
001020457750000917274000000017500770RODRIGUEZ RODRIGUEZ BEATRIZ             0019580110003291
001020457750000499556000000017500770 SILVA CARIBAN LILIA                    0021548687003291
001020457710000614823000000017500770META FUENTES AMANDA ANGELICA            0019805980003291
001020457700000904397000000017500770SILVA CARIBAN CARMEN MARIA              0024127973003291
001020457750000903987000000017500770SILVA ESTRADA ROBERTO CARLOS            0020720569003291
001020457710000892467000000017500770PEDRO ANTONIO MAQUENURE LOPEZ           0008949930003291
101020457770100657017000000017501770JOSE FRANCISCO HERNANDEZ OLMOS          0013937126003291
001020457710000808817000000017500770TAIS SUSANA CORDOBA BALCAZAR            0015984454003291
001020457740000473158000000017500770BELTRAN DALY ROJAS MARQUEZ              0012469663003291
001020457730000404415000000017500770JOSMARY ALEXANDRA SANDOVAL NAV          0022930634003291
001020457790000229904000000017500770AVEJECHI?EVEJU NOVENZA RODRIGU          0019055041003291
001020457770000526995000000017500770PABLO BENITO GAVINI MEDINA              0012451290003291
001020457780001031900000000017500770LUISA MARIAMIS RAMIREZ DELGADO          0020721403003291
001020457740000550806000000017500770ESTHER ELIANA CARRASQUEL PERAL          0018243586003291
001020457700000448028000000017500770YESSICA NAYIBE NI?O                     0023647500003291
101020457780100645392000000017501770JOSE LUIS CARDIERTORRES                 0010663931003291
001020457770000270843000000017500770JESUS RAFAEL ANAURE RUFO                0025901856003291
001020457700000153494000000017500770DOPA ARAGUA FRANKLIN LUIS               0017676124003291
001020457750000771216000000017500770GARCIA GARCIA NITZON                    0026013836003291
001020457720000793498000000017500770CHIPIAJE MANUEL ANTONIO                 0008901108003291
001020457740001082137000000017500770BLANCO MENDEZ MARCELO                   0008904269003291
001020457740000600426000000017500770MEJIAS JORGE                            0008948453003291
001020457700000573773000000017500770JIMENEZ LOZADA LINO                     0010920279003291
101020501860109401580000000017501770AMAYA MENDEZ INES MARIA                 0012451453003291
001020501810007193282000000017500770GARCIA GARCIA NORIS                     0012469343003291
001020457710000907873000000017500770PEREZ PEREZ BERNABE                     0013058236003291
001020457710001084151000000017500770RODRIGUEZ RODRIGUEZ GRACIELA            0013058792003291
101020457780100656327000000017501770TOVAR ELEIDA JOSEFINA                   0013937048003291
101020457790100657436000000017501770PADRON HERRERA JOSE AUGUSTO             0014258571003291
001020457740000824697000000017500770RODRIGUEZ ELVIRA                        0015086073003291
001020457790000285728000000017500770HEREDIA FERNANDEZ JOSE SESUS            0015304629003291
001020501880007195293000000017500770ARANA OMANA YAJAIRA                     0015304773003291
101020457710100654591000000017501770CALDERON GAITAN ANGELA                  0015499412003291
001020457760001081455000000017500770RODRIGUEZ RODRIGUEZ JOSEFA              0015500781003291
001020457780000819822000000017500770RODRIGUEZ ADELMIRA JUDITH               0015954557003291
001020457710000438672000000017500770LEAL EURIDIS DEL CARMEN                 0015955926003291
001020457710001084070000000017500770MURILLO RODRIGUEZ ERMELIMDA             0017106446003291
001020457740000602712000000017500770OTERO PEREZ GEORGINA                    0017675737003291
001020457710000449221000000017500770VILLANERO MEDINA GERMAN                 0017676168003291
001020501810007194702000000017500770CONTRTERAS GARCIA MARVIN JONAS          0017676814003291
001020457720001084083000000017500770YANAVE CHIPIAJE VICTOR MANUEL           0018505310003291
001020457700001102334000000017500770CHIPIAJE RODRIGUEZ OMAR                 0018505561003291
001020457750000803016000000017500770RODRIGUEZ PEREZ WILLIAM ISMAEL          0018506440003291
101020501870109401599000000017501770FUENTES MENDOZA ANGEL                   0018835122003291
001020457710001044434000000017500770HENRIQUEZ RODRIGUEZ HUMBERTO            0018835848003291
001020457770000282734000000017500770RAMIREZ LOPEZ ABELARDO                  0019054040003291
001020457720000916961000000017500770TORRES YAMILET                          0019298715003291
001020457730000529138000000017500770GARCIA RODRIGUEZ DARWIN.                0019352980003291
001020457750000461762000000017500770FIGUERA HURIBE FERYENI                  0019580185003291
101020457730100657151000000017501770GONZALEZ ALEJANDRO                      0020018314003291
101020457780100651628000000017501770CEDENO AVARISTO JOSE ALBERTO            0020018850003291
001020457770000891743000000017500770PEREZ GUERRERO JOSE ANGEL               0020018963003291
001020457710000860237000000017500770ARANA BLANCO CECILIA                    0020437657003291
001020457710000229755000000017500770PANAMA PONARE ULCRIDES MERQUIA          0020437846003291
001020457730000395537000000017500770ZARRAGA AQUINO MIGUEL JOSE              0020437965003291
001020457750001084672000000017500770CHIPIAJE ADELSO                         0020720819003291
001020501850007194414000000017500770CASTILLO CURUMI INARU IGRANIEL          0020721771003291
001020457710000525598000000017500770FERMIN VELAZQUEZ NARELKYS               0021107704003291
001020457700000809421000000017500770RODRIGUEZ ADRIAN EDILIO                 0021548778003291
001020457710000813394000000017500770RODRIGUEZ SANDRA BERONICA               0023647701003291
001020457710000593478000000017500770BRAVO HERRERA YOELUIS                   0023987468003291
001020743610000362078000000017500770RODRIGUEZ RICHARD COLBERT               0024128090003291
001020457710001068779000000017500770RODRIGUEZ YOEL                          0024128093003291
001020457700000595997000000017500770LOPEZ HERRERA, GREIMAR                  0024128522003291
001020501880007195620000000017500770ARANA ARANA GILMER EDGARDO              0026013663003291
001020457700000801089000000017500770SILVA COLINA NAUDY LISBET               0026013777003291
001020457750000833617000000017500770GARRIDO INFANTE DIREHUE RAMON           0026184936003291
001020457720000664242000000017500770YAVARICURE DELGADO JOSE                 0027640821003291
001020457730000411686000000017500770MONAGAS RODRIGUEZ GENESIS               0027645394003291
001020457730000685616000000017500770GAITAN REYES EMMA MORELA                0028370328003291
001020457700000932314000000017500770MONAGAS RODRIGUEZ MARIA                 0029878464003291
001020457710000904494000000017500770RODRIGUEZ LEDEZMA INGRID CAROL          0030332286003291
001020457780000887375000000017500770PEREZ RODRIGUEZ SALUSTRIANO             0030332880003291
001020457730001057201000000017500770RODRIGUEZ JULIO CESAR                   0030492887003291
001020457750000625964000000017500770REINA CORO MILAGROS MARIA               0030690754003291
001020457790000611897000000017500770ESCORCHE ARANA SUELY ZULIMAR            0030691182003291
001020457700000816210000000017500770PRINCIPAL M.SAID E.                     0031019194003291
001020457760000887359000000017500770CARDOZO SALAS NORELYS                   0032075833003291
101020457730100651379000000017501770DI MARO BARRIOS PABLO                   0020721496003291
001020457710000196286000000017500770BOLIVAR GONZALEZ RUTH                   0019563720003291
001020457710000622624000000017500770PEREZ GARCIA HILDA                      0012629500003291
001020457760000522096000000017500770GONZALEZ ALVAREZ LISBETH                0018834323003291
001020457780001050415000000017500770PEREZ PEREZ MIGUELINA                   0024127217003291
001020457710000522384000000017500770OROZCO LUIS HORACIO                     0005551871003291
001020457710000722715000000017500770CASTILLO PACHECO JOSE LUIS              0022806958003291
001020457720000374891000000017500770CARIBAN CHIPIAJE LILIA                  0026542630003291
001020457710000444116000000017500770CABALLERO MAICO ENIS JESUS              0015954454003291
101020457710100655756000000017501770DARAPE HERNANDEZ LUCILA YURISM          0025901733003291
101020457750100640462000000017501770UZCATEGUI JIMENEZ YOXELYN YOHA          0017676370003291
001020457730000877165000000017500770CABALLERO ESQUEDA AMARILIS              0013454140003291
001020457750000407975000000017500770URIBE ARAUJO ROSIBEL                    0017849807003291
001020457770000390707000000017500770JASPE DE HERNANDEZ NATHALIA             0026073048003291
001020457710001031515000000017500770APOTO MUNOZ ADRIANA NACARIS             0031113741003291
101020457760100655096000000017501770BALCAZAR MANUEL ALEXANDER               0015245907003291
001020457760000304269000000017500770SALCEDO ESQUEDA FAVIO REINALDO          0018835543003291
101020457780100656683000000017501770GAMEZ MUNOZ NEUDY NAUDYS                0019805649003291
001020457750000518932000000017500770TINEDO LOPEZ NELSON ISMAEL              0027365234003291
001020457770000612663000000017500770MORALES HERNANDEZ ANGEL                 0008945069003291
001020457750000698946000000017500770BLANCO BLANCO DEREK ANDERSON            0030492251003291
001020457750000804196000000017500770SALIYAS GAMEZ NICOLE ROSEGLYS           0030332434003291
101020352030100527152000000017501770PENA ANDRADE ODALYS JANEL               0016882965003291
001020457760001064896000000017500770GAITAN NELSY MARGARITA                  0015954166003291
001020457700000748278000000017500770AMARISTA BRAVO ROXANI NACARI            0031391354003291
101020457720100642285000000017501770GUDINO G. MARWIN DE JESUS               0015955001003291
001020457700001104701000000017500770DASILVA YAVINAPE ERIKA MILDRE           0027489029003291
001020662620000265434000000017500770ODREMAN LOAIZA ANTHONY WILKER           0028513509003291
001020457700000494166000000017500770ALVAREZ CLARIN EMILI CAIROLI            0023987840003291
001020457790001009550000000017500770MENDEZ JHERLIN LEICAR                   0027066260003291
001020457720000834454000000017500770MENDOZA CORDERO GLILEXIS AISKE          0031880029003291
001020457720000871925000000017500770ROMERO GUARUYA RICHARD ALBERTO          0023986381003291
101020457710100637693000000017501770DIAZ CAVI ROSMEL MAYCOL                 0015499268003291
001020457710000862196000000017500770MORILLO CAMICO HEIDY MELISSA            0025585390003291
001020457760000858508000000017500770CAMICO MORILLO ALDAIS NAZAREHT          0030690539003291
001020457700000797481000000017500770BLANCO AZABACHE EDUARDO MANUEL          0026837141003291
001020457750000826019000000017500770MARQUEZ LOPEZ TONY ALFREDO              0028118182003291
001020501860002389198000000017500770CAMICO GUARUYA MELIDA                   0015303345003291
001020457710000832236000000017500770PEREZ RODRIGUEZ CLEMENTE                0018195874003291
001020457750000826022000000017500770MARQUEZ LOPEZ ALEJANDRO                 0023986453003291
001020457720000772859000000017500770ROJAS CAMICO FABIAN ARIEL               0020019755003291
001020457700000822217000000017500770GALINDO DORANTE JOSE                    0022568752003291
001020457770000892357000000017500770NAVARRO MIRABAL ERSAIN                  0027727390003291
001020457710000888183000000017500770SEGUNDO MENARES JULIO                   0025275172003291
001020457740000562373000000017500770DORANTE CLARIN OSCAR ALBERTO            0018051867003291
001020457740000888206000000017500770FUENTES GOMEZ BERNABE                   0027534960003291
001020457710000911610000000017500770HERRERA MENDEZ HERNANCIRILO             0018505780003291
001020457780000810070000000017500770PEREZ PEREZ MARIELA                     0021548515003291
001020457720001005897000000017500770RAMOS DEL CORRAL RAFAEL                 0032075534003291
001020457750000821483000000017500770LA ROSA RODRIGUEZ EZEQUIEL              0021547596003291
001020457700000932149000000017500770PEREZ LAROSA YORKI JOSE                 0029937186003291
001020457740000909703000000017500770LAROSA SABINO MIGUEL                    0030690345003291
101020457730100657859000000017501770YAVINAPE ORTEGA FLORENCIA               0021107078003291
001020457760000600196000000017500770INFANTE DIAMON JOSE                     0015303931003291
001020457770001029721000000017500770AMAYA GAMEZ ZURIMAR                     0026184194003291
001020457720001000957000000017500770RODRIGUEZ PONARE JOSEFINA               0032169518003291
001020457710000545950000000017500770GARCIA MENDEZ JILL                      0018855974003291
001020457770000513597000000017500770LUCES CHIPIAJE JUAN FRANCISCO           0017105327003291
001020457730001045226000000017500770BARRIOS MARTINEZ LABIB DAICAR           0031683005003291
001020457740000720940000000017500770MIJAREZ PARADA DANIELA ROXANA           0025937369003291
001020457790000755630000000017500770AZAVACHE PAYEMA JHON                    0020721431003291
101020457750100655124000000017501770INFANTE PENUELA ROLYMAR                 0020018225003291
101020457770100658104000000017501770CAMICO ROMERO HEDHERPSON ALI            0031328805003291
101020457720100657322000000017501770SILVA PEREZ LUCIANDRA                   0017106663003291
001020457730000864495000000017500770MARULANDA MENDOZA MAGDIEL               0030691151003291
001020457750000873745000000017500770GAMEZ ZERPA NORIELYS PAOLA              0029878442003291
001020466600001012916000000017500770TOVAR MARCANO MIGUEL ANGEL              0030492436003291
001020457720000234601000000017500770LOPEZ LARA JOAN JOSE                    0025830556003291
001020457720000543677000000017500770VELIZ FLORES ALAISA YUSMIRA             0019352175003291
001020457700000853192000000017500770LARGO YOSSELIN LILIANA                  0026754967003291
001020457770001036345000000017500770GUARAN CADENAS FRANCISCO                0030492374003291
001020457700000493390000000017500770DIAZ CARMONA ADRIANA ISABEL             0018242793003291
001020457760000663007000000017500770GUZMAN MARINO STALYN                    0030691245003291
001020457750001045161000000017500770RODRIGUEZ GONZALEZ ISANDRA              0018242848003291
001020404670000205960000000017500770PIAMO GONZALEZ GREGORI                  0026295088003291
001020457750000486158000000017500770VALERA SUAREZ JOSE RAMON                0018767829003291
001020457780001043626000000017500770LADINO META LUIS CARLOS                 0026664942003291
001020457770000749361000000017500770LOZADA MARITZA VIOLETA                  0015499042003291
001020457750000844813000000017500770GUEVARA CASTILLO CRISTHIAN              0021108637003291
101020501890109401326000000017501770PEREZ RAMIREZ JHONNY                    0010605633003291
001020303130000015956000000017500770GUTIERREZ GONZALEZ CARLOS IVAN          0015303111003291
101020457780100654951000000017501770SILVEIRA MARTINEZ YACXIS                0024128991003291
001020457770000993379000000017500770GARCIA NAVAS JUNIOR                     0024476704003291
001020457730000857059000000017500770HEREDIA DE TRUJILLO ANA                 0020019743003291
001020457790000518958000000017500770SOLORZANO BARROYETA MANUEL              0027489004003291
001020457700000488965000000017500770REBOLLEDO DIAZ MARIA ANGELICA           0025420793003291
001020457710000517467000000017500770PEREZ GUERRERO JESUS                    0015086736003291
001020457720001088571000000017500770MATUTE REYES JESUS                      0020092663003291
001020457710000785192000000017500770CABI RODRIGUEZ ARIANA                   0028269902003291
101020457740100645329000000017501770BRACHO LOPEZ TULIO RAFAEL               0013491619003291
001020457700000822945000000017500770GOMEZ URBANEJA EMMANUEL                 0030690877003291
001020712690000037727000000017500770RODRIGUEZ MENDOZA BRENDA BELEN          0028118482003291
001020115200000605638000000017500770NAVAS DIAMOND JOSE                      0027489825003291
001020457780000972510000000017500770GUALLAMARE DIAZ ELIANNY                 0031774081003291
001020457720000988517000000017500770RINCONES REYES ASHLY                    0031391398003291
101020457770100644865000000017501770MORENO TORRES JAZMIN CAROLINA           0017200161003291
001020457750000819233000000017500770BUITRAGO RANGEL DEISY DANIELA           0020721824003291
001020457710000492702000000017500770RODRIGUEZ PERDOMO NERY DEL VAL          0026083848003291
001020457700000518398000000017500770CONDE ROJAS CLAUDIA PATRICIA            0015955729003291
101020457760100655860000000017501770QUERRO PONARE MAITE                     0025275184003291
001020457750000803579000000017500770EVARISTO ARAGUA JORGE                   0018835963003291
001020457710000845401000000017500770NIEVES NIEVES RAMONCITO                 0020019202003291
001020457790001053001000000017500770CUICHE PEREZ YOSMARY                    0030492155003291
001020457760000526911000000017500770BRAYAN SIMON MARCO                      0024864715003291
001020457750000872157000000017500770LAURA ROXSANA CAMEJO ROJAS              0025419784003291
001020457740000656771000000017500770GEORGE LUIS EDUARDO GOMEZ MENA          0008949152003291
001020457750000852863000000017500770JHONATAN JESUS VERA MENARE              0027066441003291
001020457790000884077000000017500770LUIS JOSE MORALES RODRIGUEZ             0028589209003291
101020457730100656842000000017501770YURAIMA DESIREE ARANGO MELGUER          0027727277003291
001020457720000768892000000017500770EDUMAR JOSE MIRABAL HERNADEZ            0032259802003291
101020457710100651599000000017501770ADRIANA NORIANI BLANCO RINCONE          0024677675003291
001020457740001028272000000017500770FREDDY ALEXANDER GOMEZ MORALES          0030492492003291
001020457780000517852000000017500770DIXON YOEL GONZALEZ                     0018727747003291
001020457730000206529000000017500770MARIAN JOSE ROJAS HERNANDEZ             0024128617003291
001020457750000085287000000017500770WUENDIS ROSA GARCIA MENARE              0023985353003291
001020457730000318585000000017500770KEYLA ISMARA MARTINEZ DE FERNA          0014975811003291
001020457780000800624000000017500770NAHOMYS ESPERANZA GONZALEZ PAY          0026837775003291
001020457730000618188000000017500770GONZALEZ PEREZ JOSE GREGORIO            0018243314003291
001020457750000591234000000017500770COLINA FRANCO ANGEL DOMINGO             0026321172003291
001020457710000283380000000017500770ALMANZA CAMICO MARIA ELENA              0012629205003291
001020457700000711506000000017500770NAVAS CELIS, NEMESIS CARMEN             0028647687003291
001020457710000743833000000017500770NAVAS BARRERAS, ANGIE F.                0030690930003291
001020457740000798781000000017500770AGUIRRE D. JANETHSY B.                  0030493027003291
001020457750000792907000000017500770TOVAR ARADA LUIS ADRIAN                 0015955339003291
001020457770000945929000000017500770GUZMAN GONZALEZ FREDDY FABIAN           0024678513003291
101020501840109401645000000017501770BRICE?O FANIA ARANA                     0014564800003291
001020457740000941020000000017500770PONARE MENDEZ RENNY WILFREDO            0031216898003291
001020457780000939362000000017500770YUAVE CUPIDO AVRYL JULIEE               0031998443003291
001020457720000875604000000017500770MORENO CARMEN CONSUELO                  0008946233003291
001020457700000912774000000017500770YUAVI JOSE GREGORIO                     0028559419003291
001020457790000940115000000017500770DIAZ PONARE YOSELIS YAJAIRA             0018835266003291
001020457720000868734000000017500770VALERIANO FUENTES INES LETICIA          0032510948003291
001020457710000845074000000017500770LIGIA VALERIANO FUENTES                 0020437447003291
001020457760000831101000000017500770LARA LARA ANA HICELA                    0018835113003291
001020457770000833387000000017500770VALERIANO FUENTES CESAR RUBEN           0027727148003291
001020457700000850292000000017500770DIAZ GOMEZ LILIMAR DEL CARMEN           0019054149003291
001020457770000448332000000017500770SILVA SILVA MARTHA                      0015955942003291
001020457770000851372000000017500770BRICE?O FUENTES ATECHAJU ALEXA          0031113642003291
101020457730100646697000000017501770SALAZAR GUERRERO JOSE LUIS              0018686482003291
001020501800007193266000000017500770RUIZ JUNCOSA MARTIN                     0012469132003291
001020501810007194618000000017500770PEREZ ARANA SEVEREANO                   0017106124003291
001020457770000818467000000017500770RUIZ ARANA LOURNIS VALERIA              0028348425003291
001020457780000666648000000017500770MORALES SANTOS YAIDELIS NEYLA           0027489584003291
101020457780100643500000000017501770PEREZ RAMIREZ ROSALIA                   0012628928003291
001020457700000666664000000017500770ARANA ARANA RICKY ANTONIO               0026754288003291
001020501850007194980000000017500770CASTILLO MARTINEZ JUAN RANGEL           0026664908003291
001020457770001038712000000017500770CEDE?O CHIPIAJE BELLANELLY              0021549327003291
001020457770001039245000000017500770MERIDA TORRES JESUS GABRIEL             0025494291003291
001020457780001039012000000017500770CHIPIAJE YURI CAROLINA                  0026184320003291
101020712660100002855000000017501770ZERPA MOTA MAURICIO                     0025647379003291
001020457720000891057000000017500770LINARES FIGUEREDO LUIS MARCIAL          0018835706003291
001020615430000206024000000017500770GAMEZ CHIPIAJE FELIXANDER               0020436619003291
001020457730000848958000000017500770ALVAREZ PONARE FRANCIZ YUVISAY          0012469090003291
001020457700000962672000000017500770 NAAZER TOVAR SOFIA                     0028700034003291
001020457780000479068000000017500770FERNANDEZ FERNANDEZ CARINA              0020437759003291
001020712620000039877000000017500770TOVAR GONZALEZ JORGE LUCINDO            0019805452003291
001020712650000036841000000017500770MARCHENA NAVAS ENOC                     0020495685003291
001020101280000409960000000017500770PEREZ PEREZ RUBIA DARCY                 0026754851003291
001020457730000358147000000017500770ESQUEDA EIRA NORAIMA                    0012451497003291
101020457780100646042000000017501770CARRASQUEL PEREZ CARLOS FREDDY          0020436494003291
001020457740000447045000000017500770PONARE RODRIGUEZ LUIS CARLOS            0020720619003291
101020457740100053414000000017501770MENDOZA JOSE VICENTE                    0008947656003291
101020457770100652500000000017501770EVARISTO ARAGUA MARGARITA MAZZ          0018050757003291
101020457740100657173000000017501770ALVAREZ LARA MIRKA YAMILET              0013058075003291
001020457700001077760000000017500770CELIS INFANTE REIDYMAR JOSE             0031683019003291
001020101240000399384000000017500770RUIZ DE MENDOZA INES DEL CARME          0012628359003291
001020457700000853998000000017500770LOPEZ CLARIN SANDRI EDUARDO             0015500611003291
001020335050000132774000000017500770CAYUPARE DAGUEMA MIGUEL ANTONI          0015955131003291
001020457790000661232000000017500770ZAMORA FAJARDO ERIC ANTONY              0030690412003291
001020457700000312756000000017500770RODRIGUEZ BUITRAGO JOSE ALEXAN          0012628947003291
101020457790100655749000000017501770GARRIDO AGUILAR BONNY FRANCISC          0022931022003291
001020457740001063457000000017500770CABALLERO BLANCA IVAN ALEXANDE          0019805780003291
