HGOBERNACION DEL ESTADO AMAZONAS         F.  C.  I.0220/06/24000000002619303291
101020457780100639334000000106921770PEREZ,  CARLOS                          0006722697003291
001020457770000606242000000073200770HENRIQUEZ RUIZ NIDIA                    0006882473003291
101020457770100632425000000081811770SALAZAR CORTEZ, NELSON RAMON            0006938634003291
