HGOBERNACION DEL ESTADO AMAZONAS         F.  C.  I.0320/06/24000000036254703291
001020338420000074405000000163630770CAMACHO G, WILLIAM                      0006087028003291
001020457760000370675000000154680770BAUTISTA MANUEL                         0008414278003291
101020457710100653143000000146401770CEDENO DADURE, NILSA ALCIDA             0001565216003291
001020457760000206150000000168370770ARROYO CARRASQUEL, RAMON A.             0001565644003291
101020457770100648138000000159061770ZUARICH DIAZ NASTTIA                    0001569486003291
001020457700000108782000000146400770LUNA MARTINEZ, MARIA GERVASIA           0001569988003291
001020457710000113696000000154680770MONTOYA RUBEN ANTONIO                   0003988985003291
101020457720100632274000000163631770HERNANDEZ MIGUEL                        0004507392003291
001020457700000684811000000146400770PLAZ ALMEIDA, RAMON P.                  0004598211003291
001020457760000161842000000189330770HERNANDEZ, JOSE RAFAEL                  0004696945003291
001020457750000274344000000183830770FERNANDEZ LINARES CARLOS                0004780115003291
001020101210000344038000000146400770OROZCO, CARLOS                          0004780177003291
101020457790100636117000000173311770GUINARE, YOSUINO ANGEL                  0004780774003291
001020457710000389585000000146400770MUNOZ DE GAVIDIA NANCY                  0004870349003291
001020457770000684057000000146400770ALMEIDA VALENTIN DE JESUS               0004978942003291
101020457710100633188000000213841770PAEZ PEDRO SAUL                         0005361495003291
001020457740000514114000000213840770FONT RODRIGUEZ, LUIS                    0005983754003291
001020457770000548656000000142500770GARCIA PEREZ, DEISY YUBIRI              0006333813003291
001020457700000641621000000142500770GARCIA TRABANCA, LUZ ESPERANZA          0006377946003291
101020457780100639334000000213841770PEREZ,  CARLOS                          0006722697003291
001020457770000606242000000146400770HENRIQUEZ RUIZ NIDIA                    0006882473003291
101020457770100632425000000163631770SALAZAR CORTEZ, NELSON RAMON            0006938634003291
