HGOBERNACION DEL ESTADO AMAZONAS         F.  C.  I.0120/06/24000000010477303291
101020457780100639334000000427681770PEREZ,  CARLOS                          0006722697003291
001020457770000606242000000292800770HENRIQUEZ RUIZ NIDIA                    0006882473003291
101020457770100632425000000327251770SALAZAR CORTEZ, NELSON RAMON            0006938634003291
