HGOBERNACION DEL ESTADO AMAZONAS         F.  C.  I.0120/06/24000001544960503291
001020338420000074405000000163630770CAMACHO G, WILLIAM                      0006087028003291
001020457760000370675000000154680770BAUTISTA MANUEL                         0008414278003291
101020457710100653143000000146401770CEDENO DADURE, NILSA ALCIDA             0001565216003291
001020457760000206150000000168370770ARROYO CARRASQUEL, RAMON A.             0001565644003291
101020457770100648138000000159061770ZUARICH DIAZ NASTTIA                    0001569486003291
001020457700000108782000000146400770LUNA MARTINEZ, MARIA GERVASIA           0001569988003291
001020457710000113696000000154680770MONTOYA RUBEN ANTONIO                   0003988985003291
101020457720100632274000000163631770HERNANDEZ MIGUEL                        0004507392003291
001020457700000684811000000146400770PLAZ ALMEIDA, RAMON P.                  0004598211003291
001020457760000161842000000189330770HERNANDEZ, JOSE RAFAEL                  0004696945003291
001020457750000274344000000183830770FERNANDEZ LINARES CARLOS                0004780115003291
001020101210000344038000000146400770OROZCO, CARLOS                          0004780177003291
101020457790100636117000000173311770GUINARE, YOSUINO ANGEL                  0004780774003291
001020457710000389585000000146400770MUNOZ DE GAVIDIA NANCY                  0004870349003291
001020457770000684057000000146400770ALMEIDA VALENTIN DE JESUS               0004978942003291
101020457710100633188000000213841770PAEZ PEDRO SAUL                         0005361495003291
001020457740000514114000000213840770FONT RODRIGUEZ, LUIS                    0005983754003291
001020457770000548656000000142500770GARCIA PEREZ, DEISY YUBIRI              0006333813003291
101020457710100645597000000207351770YURUMARE YURUMARE, ALDEMARO             0006341719003291
001020457700000641621000000142500770GARCIA TRABANCA, LUZ ESPERANZA          0006377946003291
101020457780100639334000000213841770PEREZ,  CARLOS                          0006722697003291
001020457770000606242000000146400770HENRIQUEZ RUIZ NIDIA                    0006882473003291
101020457770100632425000000163631770SALAZAR CORTEZ, NELSON RAMON            0006938634003291
001020131460000107806000000142500770DUMA SANCHEZ BENJAMIN                   0007261643003291
001020457710002651240000000213840770BOLIVAR, RODOLFO                        0007263842003291
001020457730000604985000000163630770SANZ TORRES ALCIDES ORLANDO             0007282370003291
001020105520000115610000000213840770RODRIGUEZ, MIGUEL                       0007454894003291
001020457770000084204000000146400770DASILVA, PEDRO                          0008173633003291
001020457770000955621000000142500770MURILLO, LILA                           0008414285003291
101020457730100632430000000142501770SILVA CAMICO, MATILDE                   0008774790003291
001020457710000409740000000142500770GOMEZ MAQUIRINO, JOSE                   0008774837003291
101020457710100658259000000142501770LOPEZ, EDGAR HILSO                      0008775094003291
001020457750000148470000000142500770MARTINEZ RODRIGUEZ, MORAIMA             0008784580003291
001020152780000039071000000142500770MORENO TORREALBA, JOSE RAMON            0008850300003291
101020457760100652599000000142501770ALZATE, TAHIS MAGDALENA                 0008900227003291
001020457710000671426000000142500770VASQUEZ CABI, JESUS SATURNINO           0008902124003291
001020457790000451293000000142500770MARTINEZ H., ELIEZER                    0008902176003291
101020457760100653526000000142501770LARA GUTIERREZ, LUZ                     0008903069003291
101020457730100657487000000146401770DORANTE CAYUPARE, TIMOTEO               0008903108003291
001020457770000395566000000146400770AQUINO TOVAR, MARIA MAGDALENA           0008903847003291
001020457790000670142000000146400770GARCIA, ELEOPOLDO MANUEL                0008904955003291
001020457700000482194000000146400770LOZADA, JESUS OMAR                      0008909505003291
101020457720100064155000000159061770MEDINA DE MORENO LUHA ESTRELLA          0008945315003291
101020457780100643657000000163631770LARGO MIRABAL, ANTONIO                  0008945558003291
101020457770100627919000000150461770ABREU VASQUEZ, AURA OLIVIA              0008945575003291
101020457720100637281000000213841770CACHERO MARTINEZ, ANDRES                0008945723003291
001020457790000164522000000146400770NIETO MONTERO, NENA MARINA              0008945812003291
001020457790000518149000000159060770ARAGUA TAPO DILIO                       0008945898003291
101020457790100049772000000146401770FERNANDEZ, SILVER                       0008945907003291
001020457760000376475000000142500770FIGUEREDO LEIDIS JOSEFINA               0008946084003291
001020457710000415433000000163630770ESTRADA DE INFANTE ROSA VIOLAN          0008946478003291
101020457760100657852000000146401770OJEDA, YENI                             0008947338003291
001020457770000153957000000146400770HERRERA JIMENEZ, HUMBERTO               0008948423003291
001020457760000372068000000146400770RAMIREZ CHIPIAJE, INA                   0008948808003291
001020457780000545604000000142500770BATISTA, PETRA CARMEN                   0008948838003291
001020457740000340867000000163630770RAMIREZ RATTIS, JOSE                    0008949023003291
001020457710000448769000000146400770PAYEMA EVARISTO, LIDIA                  0008949809003291
001020457790000770712000000146400770DUARTE HERNANDEZ, LUIS ALFREDO          0009187736003291
101020457790100648476000000142501770VELAZQUEZ REYES ENOD                    0009192543003291
001020457710000790831000000146400770MENDEZ RINCONES, JUDITH C.              0009599906003291
001020215970000587439000000142500770PEREIRA HERRERA YAJAIRA                 0009654731003291
101020457710100064769000000146401770GARCIA RODRIGUEZ, FRED ANTONIO          0009891179003291
001020457760000955692000000142500770GOMEZ, EDUINO                           0010015407003291
101020457780100642864000000213841770VALERIANO GONZALEZ, REQUENA             0010024399003291
001020457770001013342000000142500770LOYOLA B. FREDDY R.                     0010267311003291
101020457710100652727000000173311770WANAPANAI ULI, ISAIAS                   0010532100003291
001020457730000904025000000142500770BLANCA B. JORGE                         0010605214003291
101020457770100646518000000142501770LAPA BONILLA, ANTONIO                   0010605465003291
101020457720100648412000000201101770PONARE, ROBERTO                         0010605662003291
001020457750000575289000000142500770PENA ROBERTO                            0010605665003291
101020457720100645297000000150461770YUAVE DE CAMICO, MIRIAN                 0010606326003291
101020457710100646359000000159061770HIRIROWE,  NICO                         0010606849003291
101020457770100637124000000173311770GONZALEZ, JUAN                          0010622196003291
001020712610000022143000000142500770GARCIA, DORIS SUSANA                    0010655161003291
001020457740000546027000000146400770JIMENEZ DE MATUTE, CARMEN               0010656565003291
001020457760000117498000000146400770HERRERA, CLARA JOSEFINA                 0010658671003291
001020457790000496847000000146400770TORRES BARRIOS MAYIRI                   0010660625003291
001020457720000502854000000146400770HERRERA, EVA CORALIDA                   0010660668003291
101020457710100646113000000159061770ARAUJO DOMINGUEZ SIMA J.                0010662745003291
001020457710000498023000000142500770GAMEZ DE MEDINA ZULAY                   0010663834003291
101020378300100023327000000163631770AGUILAR DE MARTINEZ YELITZA J.          0010756556003291
001020457790000501240000000146400770GRIMAN PARRA, EGLEE YULEIMA             0010859045003291
101020457720100657885000000142501770DELGADO, LUIS                           0010920776003291
001020457710000489265000000146400770RUIZ TABARE, JOSE ENRIQUE               0010920824003291
101020457720100009513000000146401770TOVAR, ELENA EDUARDA                    0010921403003291
001020457710000315591000000146400770MARCHENA JOSE VICENTE                   0010921486003291
001020457750000275039000000146400770LOPEZ, RAFAEL                           0010921507003291
001020457700000851068000000146400770BLANCA RODRIGUEZ MARIA ADELINA          0010921669003291
001020457760000347543000000146400770BUSTAMANTE BUITRIAGO, LUIS              0010921766003291
001020457700000431116000000142500770PONARE LUCIO                            0010923460003291
001020457710000431129000000142500770GONZALEZ CLARIN, MARISOL                0010923514003291
001020457700000581257000000146400770CHIRINOS CAVI ARELIS                    0010923559003291
101020457710100643809000000142501770RODRIGUEZ, ABEL                         0010924514003291
101020457730100632721000000142501770DELGADO, ANA CASILDA                    0010942213003291
101020457790100651703000000213841770ORTIZ GONZALEZ ISAAC ANTONIO            0011232796003291
001020457760000390862000000146400770SALAZAR, LUIS OBERTO                    0011243116003291
001020457720000096221000000146400770RIVERA PACHECO, WENDY YANET             0011394197003291
001020457740000720212000000146400770CABRICES CAMEJO, JUAN                   0011758978003291
001020457790000599511000000146400770GONZALEZ, ISOLINA DEL CARMEN            0011761233003291
101020457740100636467000000142501770GARCIA ALVAREZ,GLORIA REBECA            0012173351003291
101020457730100635540000000213841770CHIPIAJE LARA, AGUSTIN                  0012173450003291
101020457780100632156000000151401770VALERO YAVINAPE, NELSON                 0012173645003291
001020457760000212241000000146400770GONZALEZ SALAZAR, WILDER RAMON          0012173677003291
001020457750000565765000000146400770CASTILLO MUNOZ LUIS MANUEL              0012173926003291
001020334190000027850000000142500770SILVA E. FREDDY G                       0012334155003291
001020457750000347129000000146400770BITRIAGA DE LUNA, DEISY                 0012338650003291
001020284170000235082000000142500770YUAVE D. JESUS RAFAEL                   0012451055003291
001020457760000361202000000146400770NIEVES DE GONZALEZ, CARMEN              0012451473003291
101020712680100001560000000142501770BAUTISTA VEGAS, ROMERO                  0012451506003291
101020457770100656708000000142501770PAYEMA PEREZ, JOSE                      0012469169003291
101020457710100655796000000159061770MONTERO BOLIVAR, ANALI                  0012469268003291
101020457760100059700000000146401770CLARIN ANEZ, DAMNY GREGORIO             0012469452003291
001020457790000641773000000142500770GOMEZ ESTEVES, ALEJANDRO A.             0012469568003291
001020457710000287137000000142500770MARTINEZ ALVAREZ, RODOLFO               0012469583003291
001020457720000641799000000142500770GARCIA VIDERA, JOSE MIGUEL              0012469604003291
001020501880007213162000000142500770VALERIANO GONZALEZ, ANDRES              0012469685003291
101020457790100657887000000146401770DIAZ CURIJINA, FREDDY BAUTISTA          0012469703003291
001020457740000858252000000142500770MEJIAS RODRIGUEZ, JORGE                 0012469738003291
101020457700100649232000000201101770BOLIVAR, JAIME                          0012469958003291
101020457780100654433000000168371770CHIRA,  ALEXI                           0012469962003291
001020457700000573210000000146400770MEJIA, JOSE                             0012521591003291
001020457770000351843000000146400770PERALES , YULIMAR                       0012582102003291
001020457770000914468000000142500770GUARAN MU?OZ RAMON HERNANDO             0012628076003291
101020457770100643151000000150461770GONZALEZ, ERMEREGILDO                   0012628150003291
001020457730000919298000000142500770ESTEVES RONDON, FRANCISCO O.            0012628348003291
001020501830007193295000000142500770RAMIREZ I. JUANITA                      0012628558003291
101020501820109401369000000142501770ARANA, BERTHA CECILIA                   0012628614003291
001020457760000288770000000178440770QUINONES RAMIREZ, FEDERICO              0012628637003291
101020457760100644115000000213841770CAMICO HERRERA, MELINO                  0012628773003291
001020466610000099040000000154680770NUNEZ HERNANDEZ PEDRO                   0012628775003291
101020457710100636780000000213841770AGUILAR JOROPA, HERMEN                  0012628791003291
001020457770000785244000000142500770TOVAR SILVA, FAUTINA                    0012628874003291
001020338450000454009000000146400770CHIPIAJE, MARIA EUGENIA                 0012628902003291
001020526320000031914000000168370770GARRIDO ROJAS GERMAN                    0012629623003291
001020457780000073341000000142500770ALVAREZ BALDOMERO, FRANCIA N.           0012629827003291
101020457780100653170000000146401770TINEDO NIEVES PABLO SADOC               0013058100003291
001020457710000393801000000146400770MEDINA TOVAR CAROLAIKA                  0013058409003291
001020457720000545798000000159060770SANCHEZ GAMEZ,CARMEN YRAIMA             0013060358003291
001020698770000121594000000151400770RODRIGUEZ CARRASQUEL, JUAN C.           0013254347003291
001020457720000556431000000163630770BLANCA ALVAREZ, JESUS ALEXANDE          0013325091003291
101020457750100657312000000159061770RODRIGUEZ CALDERON,ELOYNA               0013325129003291
001020457710000743189000000142500770MORALES MORALES, MARIA                  0013325147003291
001020457740000616478000000146400770SANJUANELO YAVINAPE OLIMPIA             0013325187003291
001020457720000744298000000142500770MARTINEZ, PEDRO                         0013389389003291
001020457750000514282000000142500770SILVA PEREIRA, EZZIO ARIMAR             0013558153003291
001020457750000436506000000146400770PEREIRA GARCIA, OVIDIO NICASIO          0013558480003291
001020457710000693077000000142500770PEREZ GONZALEZ, LUIS                    0013578498003291
101020457740100652717000000150461770MARTINEZ Y, CAURENCIO LARE              0013617202003291
001020457700000129583000000173310770PAEZ, PAUL                              0013617317003291
101020457770100060370000000142501770ARAGUA GONZALEZ, ROSITA MORENA          0013714085003291
001020457710000351720000000142500770HERRERA CONTRERA, ABRAHAM               0013714644003291
101020457770100629895000000146401770GALLARDO FRANCO SANIN                   0013714672003291
001020457720000129363000000146400770TOVAR CASTILLO, VERBIS JOSEFIN          0013714880003291
001020457720000820361000000142500770GONZALEZ GONZALEZ, ELEAZAR              0013714996003291
101020457730100655335000000159061770RODRIGUEZ APORTE,JESUS                  0013727898003291
001020457750000666949000000146400770DASILVA YAPARE, DILMA GARLIS            0013964045003291
001020215970000097602000000142500770VERENZUELA PALMA, LUIS EDUARDO          0013964067003291
001020457710000349062000000146400770CLARIN, ANA                             0013964204003291
001020457700000866590000000142500770HERRERA CARRASQUEL, NIEVES              0013964347003291
001020457780000471066000000146400770NIEVES, CRISANTO                        0013964766003291
101020457700100638733000000159061770FLORES BRITO,ALVARO                     0013964972003291
001020457740000084424000000150460770VASQUEZ CUENCA, NARCIBEL                0014027997003291
001020457700000206341000000146400770CELIS ZAMORA LUZMILA DE JESUS           0014187918003291
001020457770000150332000000213840770SANZ, MARELYS                           0014258033003291
101020457740100628207000000163631770CAMICO DASILVA JULIETA                  0014258094003291
101020457700100657041000000159061770ACOSTA BOLIVAR JOSEFINA DEXIS           0014258729003291
001020457700000336703000000142500770IRAZABAL FLORES, EUGENIO                0014258834003291
001020457780000672658000000146400770MATA,  ZULEIMA DEL CARMEN               0014286417003291
101020457760100639867000000151401770TORRELLAS TORRES, EDGAR                 0014510281003291
001020457790000086985000000142500770CALDERON R. YUDISMAR                    0014564103003291
001020457720000041218000000146400770ORTEGA NAVAS KEILA                      0014564547003291
001020457780000559535000000146400770DIAZ ALEXIS ALCIDES                     0014564549003291
001020457710000495440000000146400770RICO MENARE SORAIMA FLOR                0014565135003291
101020457780100061980000000146401770MARQUEZ OJEDA, UECARIS                  0014565183003291
001020457790000093774000000164060770URBINA CASTRO, RONIEW ALISET            0014565608003291
001020457770000162058000000207350770PERDOMO CAMACHO, JANETH J.              0014565684003291
001020457700000286918000000178440770MORENO, KEILA LIDICE                    0014565848003291
101020457720100630878000000146401770NIEVEZ RINCONES, MANUEL                 0014565903003291
001020501890007195219000000142500770PARRA RUIZ, REINALDO                    0014625021003291
001020457700000448918000000151400770REBET VASQUEZ,ANDRES                    0014628734003291
001020457740000851592000000142500770ROMAN, JENSON                           0014636602003291
001020457760000838324000000142500770VINA P. NESTOR D.                       0014637663003291
001020457780000554433000000146400770FLORES SILVA YARITZA MARILEN            0014650491003291
001020457790000560126000000142500770ANDERSON AGUILERA                       0014970285003291
001020457710000196215000000159060770FIGUEROA FLORES, HENRY MANUEL           0015005195003291
001020457720000152741000000146400770MEDINA, HECTOR LUIS                     0015067795003291
001020457750000557472000000159060770PANTOJA JOSE MIGUEL                     0015083452003291
001020457760000610209000000146400770BORGES, ARISTIDES                       0015086110003291
001020457710000284648000000146400770MONTIEL TORRES, JESUS ALBERTO           0015086213003291
101020457780100656537000000151401770DE REMARE YAVINAPE, YODALYS M.          0015086232003291
101020457780100657753000000159061770PALOMEQUE, JUANA MARIA                  0015086610003291
001020457720000693255000000146400770GARCIA PUERTA, DAIRY DAYARITH           0015086854003291
001020457710000447825000000146400770LAYA, ARELIS JOSEFINA                   0015245297003291
101020457740100646822000000163631770RAMIREZ ROSA E.                         0015246199003291
001020633240000107712000000142500770CERMENO, JUAN CARLOS                    0015246932003291
001020457710000212115000000142500770ZAMORA BUITRIAGO, JOSE GREGORI          0015303004003291
001020457760000743228000000142500770GONZALEZ DELGADO, ANTONIO               0015303061003291
001020457720000315999000000164060770DACOSTA MATIAS ALEJANDRO                0015303091003291
001020457780000350912000000142500770SANDOVAL G.CLAUDIA L.                   0015303130003291
001020457730000337511000000142500770GARCIA JAIME                            0015303175003291
001020457760000741026000000142500770HILARIO PONARE, JIMMY                   0015303240003291
001020457780000362395000000173310770PAYEMA NIEVES, EDUARDO                  0015303587003291
001020457780000368357000000173310770RODRIGUEZ MARQUEZ, JUAN                 0015303653003291
101020457760100656068000000159061770GONZALEZ CLARIN, BETTY                  0015303727003291
001020457780000619572000000146400770QUINTO MARCANO, YELKARY                 0015303929003291
101020457760100648987000000159061770CARIBAN DE MILANO,DENISE                0015304019003291
001020457740000492728000000146400770URIBE, YENDRY YARITZA                   0015304032003291
001020457740000019279000000142500770DIMARCO FUENMAYOR, JOHAY P.             0015304073003291
001020457750000080266000000142500770ALVAREZ BALDOMERO, SELVA FANIA          0015304136003291
101020457710100655319000000146401770MORILLO, ZAIDA YUMAR                    0015304304003291
101020457790100643469000000146401770CLARIN GAITAN, LUZMILA                  0015304305003291
101020457780100647854000000201101770HERRERA ESCOBAR, LUIS                   0015304503003291
101020457760100648357000000163631770ESQUEDA LARGO REGNYS OLIVIEL            0015304584003291
001020457770000103415000000146400770ABAD, PETER YONATTAN                    0015304624003291
001020457790000884886000000142500770GALLARDO GAITAN, LUZ MARY               0015304724003291
001020457710000826721000000142500770PESQUERA BLANCO YHONNI A.               0015304830003291
101020457780100647661000000146401770CIPRIANI YANAVE, PILAR JOSEFA           0015499321003291
101020457770100642906000000163631770SUESCUN MEDINA, MADELIN                 0015499357003291
001020457710000351144000000146400770CAMICO M, EUGENIA                       0015499372003291
001020457750000216315000000146400770GARCIA SALAZAR WILDER JESUS             0015499375003291
101020457700100641339000000213841770CUICHE ESCOBAR, NELSON RAFAEL           0015499495003291
001020457700000556004000000159060770PANAMA PONARE LUZMILA LLANEY            0015499508003291
001020457700000598253000000146400770TRUJILLO GLORIA                         0015499716003291
001020457700000430256000000142500770MEDINA ELYS                             0015500002003291
101020457770100051720000000142501770MORENO GOMEZ, ROBERT ALEXANDER          0015500071003291
001020457720000700012000000146400770RINCONES CARVAJAL, KATIUSKA             0015500082003291
001020457720000119836000000142500770YUAVE NANCY                             0015500937003291
001020457730000086778000000159060770NINO MOLINA MARCOS                      0015535760003291
001020105540000366786000000150460770OVALLES PERDOMO, SILVESTRE              0015650776003291
001020466660000429649000000163630770MORILLO SOLORZANO, KASANDRA             0015683942003291
001020312120000018940000000151400770ARELLANO DE PEREZ,  YENDY               0015760103003291
001020457700000590251000000146400770RAMOS RAMOS, DIEGO                      0015936972003291
101020457710100652316000000163631770LARA PEREZ KATIUSKA YANISETH            0015954429003291
001020457750000474270000000142500770GARCIA M. FELICITA M                    0015954484003291
001020457790000859633000000142500770SILVA REYES, FREDDY                     0015954521003291
001020457710000685917000000146400770CARIBAN PONERA, WILFREDO ALIRI          0015954560003291
001020457710000122292000000146400770CARIBAN PONARE, EDGAR ELIOMAR           0015954571003291
001020457750000528456000000146400770LARA DIAZ, NEIDA                        0015954653003291
001020457710000686369000000146400770PONARE, EDGAR DANIEL                    0015954714003291
001020457770000556871000000159060770VENANCIO RIVAS,OSWALDO                  0015954764003291
101020352060100519770000000146401770CABALLERO ROSALES, LEIDY D.             0015954775003291
001020457790000491583000000150460770PEREZ PEREZ NANCY                       0015954790003291
001020457740000482152000000147500770MARTINEZ, ANA YAJAIRA                   0015955372003291
101020457750100643524000000147501770MARTINEZ, NARQUIN DINAIRA               0015955373003291
001020457710000315261000000146400770DE LOS RIOS RODRIGUEZ, BOLPAUR          0015955628003291
101020457710100641736000000146401770LUNA VERA, JUAN BAUTISTA                0015955682003291
101020457760100649749000000142501770GONZALEZ S. JUAN G.                     0015998672003291
101020457780100647160000000163631770MENDOZA SEIJAS, ANA                     0015999458003291
001020457710000420826000000142500770AMARO, INGRI SUGEN                      0016114315003291
101020120920107467746000000146401770ROSALES DE MENA, EDITH Y.               0016259186003291
101020457710100060303000000146401770LORETO RONDON, ADRIAN VICENTE           0016270420003291
001020457730000717173000000146400770SOLANGEL, MAURICIO                      0016272217003291
001020457710000528498000000150460770OJEDA MACHIQUE RAFAEL                   0016504231003291
101020712630100001005000000147501770JIMENEZ ROSA YUSMARY                    0016747491003291
101020457770100655509000000147501770ORTIZ ACEVEDO, OLGA                     0016757897003291
001020457780000444417000000163630770CASTRO DE RODRIGUEZ, BEATRIZ            0016766130003291
001020457730000288343000000146400770RINCONES INFANTE, NORELIS               0016766168003291
001020457740000070975000000146400770QUINONES ZARATE VICTORIA                0016766338003291
101020457750100655026000000163631770EDILIA VIDERA SILVANO                   0016766416003291
001020457780000745527000000142500770ORIVIO LOPEZ, SANTIAGO                  0016766453003291
101020457770100639116000000168371770ROJAS ROJAS, GUSTAVO ISAIAS             0016766495003291
001020457730000496559000000163630770CAMICO CHIPIAJE NEIDA TERESA            0016766537003291
001020457700000575328000000146400770MORALES MORENO, SILVIO                  0016766737003291
001020457760000442684000000159060770MORENO ACOSTA,MIRNA MERCEDES            0016766956003291
001020457770000417114000000146400770CARIBAN, HEIDI DEL CARMEN               0016767137003291
001020457730000316710000000146400770VILLAZANA YANIVAL YIRKA                 0016767225003291
001020457780000684390000000146400770GONZALEZ DELGADO, MATEO                 0016767238003291
001020457780000422756000000146400770MANRIQUE MACURIBANA, AMABLE             0016767515003291
101020457790100657226000000150461770ESCOBAR ANNY ELIZABETH                  0016767914003291
001020457760000626099000000146400770ROJAS SUEZ, ELITZA JOSEFINA             0016767994003291
001020501850000558633000000155460770UGAS LYON, HILDA NAYARY                 0016826148003291
001020457710000552338000000159060770CHIPIAJE FREDY RAMON                    0016975578003291
101020698710100009184000000146401770BEJAS ARANA, SORELYS DE JESUS           0016977994003291
001020457710000917973000000142500770GOMEZ MURILLO, GODOFREDO G.             0016984962003291
001020457710000110314000000195100770URDANETA, ALEJANDRO                     0017023391003291
001020457760000387914000000173310770ESHOWE, MATEO KAHINO                    0017023467003291
001020457780000520959000000146400770PADAMO PADAMO, RAMON R.                 0017023657003291
001020457750000571775000000142500770ASIZA, ZUSANA                           0017105037003291
001020457740000615055000000146400770GONZALEZ MELGUERO FLOR                  0017105088003291
001020457770000696841000000151400770ESPEJO BLANCO, INGRID MILAGROS          0017105131003291
001020457720000336318000000142500770DIAZ ARTURO                             0017105190003291
101020457730100654864000000159061770YARUMARE E. NORIS. M.                   0017105457003291
001020457720000192947000000189330770GUEVARA DIAZ, ALBERTO                   0017105517003291
001020457730000497419000000146400770HOMERA, EDGAR ALEXANDER                 0017105521003291
001020457770000689968000000146400770YAVINAPE, ALFONZO FIDEL                 0017105528003291
001020457780000547644000000159060770GARCIA ARMANDO JOSE                     0017105585003291
001020457700000823724000000142500770CONTRERAS Y. MARCELINO A.               0017105702003291
001020215910000030494000000213840770SALAZAR MARTINEZ, MAIRA I.              0017105731003291
001020457720000403872000000146400770DIAZ, MARIANGEL JOSE                    0017105866003291
001020457760000750499000000142500770YAVINAPE C. YURIMEL D.                  0017105938003291
001020457780000114051000000150460770RUIZ CAYUPARE DAYANA                    0017105968003291
101020457740100652491000000146401770MURILLO CANCIO, ALBERCIO R              0017106206003291
001020457750000416403000000146400770NAVARRO CALDERON, JACKSON J.            0017106237003291
101020457700100640403000000146401770MERIDA, OMAR                            0017106666003291
001020885860007137770000000159060770HERNANDEZ PANAMA,IRENE EDILZA           0017106681003291
001020457730000757382000000142500770MARTINEZ GONZALEZ, MARVELIS I.          0017106738003291
001020457740000432500000000142500770GALLARDO TORRES HUMBERTO                0017106800003291
101020457710100644734000000142501770BOSSIO R. INGRID                        0017106883003291
001020457760000112480000000150460770SANCHEZ BRICENO, MANUEL J.              0017106937003291
001020457770000143462000000159060770PEREZ MORENO,CRISTINA YUVISAY           0017137821003291
001020457770000398385000000142500770APOSTOL ALVAREZ, JHON                   0017149414003291
001020457720000259725000000146400770GUERRA ESPA?A ARELIS MISAY              0017324007003291
001020200140000005885000000146400770MEJIAS HERRERA, JESUS RAFAEL            0017325101003291
101020457740100648375000000146401770BARRIOS MENDOZA, SOL NELITZA            0017325195003291
001020457780000567750000000142500770YENDEZ GONZALEZ, ROSMERY                0017407683003291
001020457710000516934000000146400770PADRON CORRALES,GLENYS                  0017609773003291
001020457780000448659000000146400770PAREDES ESPANA, YDHANA DE J.            0017656746003291
001020457730000617493000000146400770BASTIDAS MARILY COROMOTO                0017675212003291
001020457750000715146000000146400770GONZALEZ, VERONICA VERENICE             0017675295003291
101020457780100653539000000146401770INFANTE MARTINEZ ANGELICA               0017675814003291
001020457720000258784000000146400770CATIMAY, ANA VANESSA                    0017675892003291
001020457700000666499000000146400770DORANTE DORANTE DAISY CAROLINA          0017676129003291
101020457770100650794000000159681770LINARES PADRON, VICENTE                 0017676444003291
101020457710100650047000000163631770COLINA PADRON, ALBERTO                  0017676729003291
101020457720100641363000000154681770CADENA DANIVAL, JORGE EDILMAR           0017676752003291
101020543300100000804000000146401770CHARO PADAMO                            0017676820003291
101020712610100002298000000142501770DASILVA BARRIOS MARLLIS                 0017791081003291
001020457760000463647000000159060770MENDOZA JUNNIOR                         0017915549003291
101020457730100656856000000163631770TABLANTE, MARIA JOSE                    0018050187003291
001020457710000850467000000146400770PEREZ GOMEZ, YARQUELIN                  0018050199003291
001020457790000514473000000150460770PALACIO DE BOLIVAR JULIA                0018050383003291
101020457750100649890000000200101770RIVAS PADRON, ROSEMBERT                 0018050775003291
001020457750000622093000000150460770YAVINAPE, FELIX                         0018050814003291
101020457710100658312000000142501770GARCIA SIERRA, RAMON ALEXANDER          0018051062003291
101020457700100658318000000142501770GARCIA NARCIZO, ROMEIBI A.              0018051142003291
001020457770000641919000000142500770CARDOZO RONDON, PABLO ALI               0018051181003291
001020457780000390312000000168370770ZAMORA SARMIENTO, BASILIO               0018051545003291
001020457770000194136000000183830770COLINA GONZALEZ, RUBEN                  0018051573003291
101020457710100648953000000201101770MATA COLINA, BRICENO                    0018051574003291
101020457770100645580000000207351770ROVENTY, CARLOS OSCANDO                 0018051617003291
001020457730000143268000000146400770MARCHENA GUARAPARE, JOSE R.             0018051745003291
101020457750100646343000000213841770RODRIGUEZ GONZALEZ, PEDRO               0018195236003291
001020457700000597636000000146400770VERENZUELA DUGARTE, JOSE LUIS           0018195947003291
001020457700000515825000000163630770PEREZ GOMEZ, PEDRO                      0018195979003291
001020457710000778727000000142500770MOGOLLON DELGADO, ROSSY                 0018242710003291
001020457710000543745000000146400770MARTINEZ LOPEZ, ADRIANA AZUCEN          0018242770003291
001020457750000046585000000146400770PERALES REQUENA, ALDRIN A.              0018243178003291
001020457750000095219000000168630770COA CHIRINOS, LUCILA                    0018243329003291
101020457700100643303000000163631770ALVAREZ NUNEZ, XIOMARA                  0018243391003291
001020457730000359735000000150460770CABRERA ARACA, KARLA MAIRELYS           0018243494003291
101020457730100650104000000146401770HURTADO YUSUINA BLEYDIS KARINA          0018243541003291
001020457760000417431000000146400770MARTINEZ PEREZ, DANYS CRISTIAN          0018243622003291
001020457710000502278000000142500770QUINTO ROJAS CARLOS G.                  0018243711003291
101020457710100641672000000147501770CARRASQUEL MIGUELANGEL                  0018243779003291
101020457760100650853000000146401770HERNANDEZ ARAUJO ROSEMELY LORI          0018243905003291
001020457710000361477000000146400770GONZALEZ, ANGEL DE JESUS                0018243941003291
101020457710100652890000000146401770NAVARRO SOSA, YANET JOSEFINA            0018327662003291
101020457700100648968000000146401770REYES ROJAS,ANTTONIETA                  0018341648003291
001020457790000771892000000142500770VILLEGAS GONZALEZ, LEIDIZ               0018505206003291
001020457740000114909000000146400770ALAYON TOVAR, LAURE VANESA              0018505271003291
001020457700000059938000000159060770GONZALEZ TRABASILO DALYS                0018505295003291
001020140310000043889000000213840770OLIVARES CHIPIAJE, HILCOS               0018505393003291
101020712630100000596000000151401770GONZALEZ DEXIS                          0018505435003291
101020457760100642008000000142501770CARIAS BASTIDAS, MARVIN JOSE            0018505447003291
001020457760000110602000000163630770OROZCO ALVAREZ YUSMIRIAN                0018505540003291
001020457740000517823000000146400770GARRIDO ARAGUA, EDER EUGENIO            0018505636003291
101020457710100657314000000159061770GUDINO DE R. WILMARI J.                 0018505849003291
101020712630100000565000000146401770MEDINA ARRIETA, DARWIN                  0018505940003291
001020712620000028684000000146400770CAMICO ANGEL RAFAEL                     0018505948003291
101020457720100656641000000163631770ARAGUA OLIVO MAYRA DIANE                0018506036003291
001020457790000503439000000159060770SOLOZARNO RODRIGUEZ,HECTOR              0018506109003291
101020457710100656768000000151401770QUILELLI ESCALONA SORAYA                0018506228003291
001020457770000669140000000146400770YURIYURI YOSUINO, DIANI                 0018506282003291
101020457720100643937000000142501770HERNANDEZ DASILVA, GLADYSMAR Y          0018506337003291
001020457740000617260000000146400770ALAS MIRABAL, ANA KARINA                0018506770003291
101020712660100002239000000142501770RIVERO YUSINO CARMEN                    0018506899003291
001020457740000557870000000159060770ROJAS, NELSON RAFAEL                    0018544084003291
001020457710000752345000000142500770PEREZ CONDE ANDREINA KAREN              0018835025003291
001020457710000405087000000150460770PEREZ PEREZ MIGUEL TADEO                0018835047003291
001020457710000562755000000159060770DACOSTA M, ALEXIS H.                    0018835254003291
101020457720100647163000000159061770ROJAS TORRES,LEIDYS TERESA              0018835292003291
001020457730000495783000000146400770ROJAS MORENO SERGIO                     0018835323003291
101020457790100641768000000146401770FUENTES TESARA YASMIDIS DALIBE          0018835357003291
101020457730100656663000000146401770BUENO GUAPO KARLA ALEJANDRA             0018835562003291
001020457760000442121000000146400770CASTILLO PEREZ, CARMEN LUCIA            0018908905003291
001020457790000920494000000142500770CEDE?O LOPEZ FRANKLI JOSE               0018943830003291
001020457720000350297000000151400770MEREGILDO YUAVE, ARCANGEL               0018967481003291
001020481040000097385000000142500770RODRIGUEZ CORTEZ, CARLOS A.             0019054016003291
001020363500000432403000000142500770FERNADEZ ESCOBAR, FRANK G               0019054028003291
001020358900000136644000000146400770FONSECA CESAR, DANIEL ARMANDO           0019054310003291
001020457710000502922000000163630770MARTINEZ NARVAEZ, NARLYN YASMI          0019054422003291
101020501840109401600000000142501770MENARE L. MARILUZ                       0019054777003291
001020457710000571500000000146400770HERNANDEZ GOMEZ, JESUS ALBERTO          0019054861003291
101020457700100644175000000142501770PINTO RODRIGUEZ, REMIGIO A.             0019055035003291
101020457740100654595000000168371770COLINA, ASIZA OMAR                      0019055303003291
101020457780100649720000000142501770GUZAMANA LOPEZ ANTHONY R.               0019055633003291
001020457720000904096000000142500770ARROYO M. EDWARD M.                     0019055658003291
001020457750000143608000000146400770PACHECO DANIELA                         0019055816003291
001020457790000529099000000146400770MANUARE MANUARE YEGLES YECIRE           0019095776003291
101020457700100642958000000142501770RODRIGUEZ GARCIA, YURNMA Y.             0019167045003291
001020457740000867159000000146400770PEREZ, REINALDO                         0019167592003291
001020457760000517593000000159060770CAMPOS LOPEZ,ANA YULIENI                0019196960003291
001020457720000889373000000142500770SILVA G. GRISELIS M.                    0019250136003291
001020457780000563424000000146400770PEREZ ORTEGA WINDER                     0019352043003291
101020457780100651595000000146401770HERNANDEZ RAMIREZ, MARIA                0019352232003291
001020457740000055084000000146400770RODRIGUEZ LUNA, ALFRED ALEX             0019352241003291
101020457720100651035000000146401770LUGO ABAD, JESSICA ANDREINA             0019352352003291
001020457780000460035000000142500770GOMEZ MURILLO, MARITZA                  0019352573003291
001020457700000554608000000163630770MENARE CAMICO,HUGO ADRIANO              0019352759003291
001020457790000244581000000146400770CARPIO RENGIFO, MICZULEY M.             0019352798003291
001020457760000352046000000146400770JIMENEZ GONZALEZ, MIGUELANGEL           0019352874003291
001020457780000684387000000146400770GONZALEZ DELGADO, MARIANA               0019352889003291
001020457790000662011000000146400770GALLARDO TORRES, MAIRA ANDREIN          0019352930003291
001020730430000050089000000146400770ESQUEDA ECHENIQUE, ANAIS C.             0019401320003291
001020712630000013741000000142500770PERDOMO MELITZA MAYERLING               0019580226003291
001020457770000684141000000146400770CADELES PEREZ, WALDER                   0019580265003291
001020457710000740933000000142500770LOPEZ PONARE, DIANA                     0019580266003291
001020457790000742795000000142500770DELGADO LOPEZ, FATIMA                   0019580289003291
001020457710000500238000000146400770CASTANEDA JIMENEZ, MARIA                0019580447003291
001020457710000214317000000146400770ESPINOZA, YURIS MARIA                   0019580619003291
001020457720000463618000000146400770PAYEMA DE BERNABE, MADELYN Y.           0019580653003291
001020457780000848916000000142500770CARDOZO GAITAN, MARIA CRISTINA          0019580671003291
001020457700000613950000000151400770OJEDA PEREZ, KARLENIS D.                0019580705003291
101020457740100643130000000163631770SANCHEZ OLIVO WILMER                    0019580717003291
001020457750000529154000000146400770LARA DIAZ, NANDRY DULCE MARIA           0019580755003291
101020457730100657506000000146401770ROJAS SILVA, JOHN HELLERI               0019580936003291
001020457730000525378000000146400770DIAZ CARIBAN, CIPRIANO ALFONZO          0019580964003291
001020457750000516646000000168630770ALONZO CANA, JUNEXIS AURIMAR            0019656217003291
001020457720000507312000000159060770CABALLERO RAMIREZ,ABEL                  0019656429003291
001020457700000385903000000159060770CASTILLO ADRIANA                        0019805016003291
001020457750000580847000000150460770MORILLO GOMEZ ALIER ANGEL               0019805243003291
101020457750100644785000000146401770NOGUERA ALVAREZ, ANA MARIA              0019805289003291
001020457730000517975000000142500770RAMOS ROJAS, FRANK ROEL                 0019805327003291
101020457760100653722000000163631770HURTADO SOLANO, ROSA                    0019805455003291
001020457700000285252000000159060770SILVIA LOPEZ,DORIANNYS                  0019805512003291
101020457710100652016000000146401770BONILLA BLANCO, BEATRIZ A.              0019805675003291
001020501800007214844000000142500770BLANCO CH. ELIDA                        0019805767003291
001020457700000303846000000146400770ARROYO RIVERO, NIMYS YULIANNYS          0019805983003291
101020712610100002410000000142501770PEREZ RODRIGUEZ MAHOLY                  0019872337003291
001020457790000918325000000142500770ORIVIO GOMEZ, ALFONZO                   0020018080003291
001020457730000771685000000147500770RODRIGUEZ GARRIDO, ROSALBA              0020018099003291
101020457780100656988000000164061770VENANCIO RIVAS,NASAIRA                  0020018337003291
101020457760100646348000000213841770LOPEZ LOPEZ, SERGIO                     0020018515003291
001020712610000038522000000146400770BRISENO LAROSA BRIGIDA                  0020018780003291
001020457730000555254000000146400770ACOSTA CASTILLO, DIXON JOSE             0020018800003291
001020557380000006253000000146400770MAGO REINA, RAFAEL GUAICAIPURO          0020018983003291
001020457700000598981000000146400770VEGA NIEVES, ROGELIO                    0020019238003291
101020457700100650378000000146401770MUNDARAIN, CLAUDIO                      0020019304003291
001020457750000286073000000146400770NIEVES ESCOBAR, FRANKILN A.             0020019310003291
101020457770100643747000000146401770PINATE, PATRICIA ANDREINA               0020019334003291
001020457720000380416000000146400770GUILLEN ARMANDO                         0020019375003291
001020501850007214239000000142500770TOVAR A. DAYANA Y.                      0020019597003291
001020457720000447922000000146400770ADARO ARVELO, JOSE FIDEL                0020019662003291
001020457740000795153000000142500770SILVA ROSALES, RENE REINALDO            0020019688003291
001020457740000238937000000142500770PESQUERA B. JENIFER P.                  0020019777003291
001020457700000359379000000163630770AGUILAR RANGEL EMILY EDECIA             0020042039003291
101020457750100654104000000159061770SANDOVAL LUCILA                         0020436112003291
001020457780000393694000000168370770OCHOA MARQUEZ, ALFREDO                  0020436304003291
001020457720000420266000000146400770SALCEDO HERNANDEZ, NEMESIS              0020436475003291
101020115290100059624000000142501770JORDAN RIVERO HERMINIA S.               0020436893003291
101020457770100649094000000146401770CUBILLOS RINCONES, ORQUIDEA V.          0020436975003291
101020457750100653390000000146401770ALVAREZ MENDEZ, LAYDETH                 0020436998003291
101020457710100647799000000159061770PANCHO PANCHO DIEGO                     0020437060003291
101020457740100654385000000146401770MUNOZ, ALAN                             0020437096003291
101020457770100657650000000146401770YANEZ GONZALEZ, HERNANDO J.             0020437140003291
001020457780000549846000000147500770CORREA O. ROSA M                        0020437196003291
101020712610100002110000000142501770BLANCO MONTOYA SANDYS                   0020437265003291
101020457750100645967000000142501770CONDE ORTIZ, YUREBA IZANA               0020437550003291
001020457790000942320000000142500770GARCIA GARCIA, CARLITOS                 0020437646003291
001020457760000249256000000142500770SALAZAR RAMIREZ, ODELY MIRNA            0020437749003291
101020457710100645499000000146401770CALDERA ALVAREZ, JHOANNA                0020437858003291
001020457730000970512000000142500770HERNANDEZ G. RUBI                       0020437904003291
001020363500000054454000000159060770OMANA ROJAS, WENDY JOHALDRY             0020475141003291
101020457740100654287000000146401770BRITO SANTANA, KATELYN J.               0020494865003291
001020712680000010388000000142500770JARAMILLO NIURKA YULIBET                0020495669003291
101020466650100065268000000154681770LOVERA FAIRY JESSENIA                   0020523422003291
001020457750000856377000000142500770FILGUERA, JONNY ARGENIS                 0020557730003291
101020457790100649465000000146401770NAVAS YUSUINO, ANA CECILIA              0020720044003291
101020457760100653669000000163631770LOPEZ LOPEZ, AMARIO                     0020720137003291
001020457710000398505000000150460770ALVAREZ PONARE, YOSELKY YOLEID          0020720179003291
001020457730000428844000000146400770GALLARDO LUNA, JOSE OMAR                0020720319003291
001020457720000374079000000142500770YAVINAPE, IRENE ANAYARI                 0020720533003291
001020457760000662875000000142500770FUENMAYOR S. AURA. E                    0020720705003291
001020457780000749125000000146400770PEREZ, DENIS                            0020720714003291
001020457780000420716000000146400770SALCEDO HERNANDEZ, YENSI I.             0020720779003291
101020457730100657537000000146401770CARIBAN, NAIL CELMIRA                   0020720796003291
001020457710000482770000000159060770ROJAS SINIVA,RICHARD JAVIER             0020720909003291
001020457730000482550000000146400770PEREZ GOMEZ, LUIS FRANCISCO             0020720931003291
001020457700000590895000000146400770MARTINEZ GARRIDO, YOLANDA               0020720992003291
001020457790000231426000000142500770RUIZ A. ABEL V.                         0020721338003291
001020856420000102775000000142500770AZABACHE SHIRLEY                        0020721439003291
001020457710000447993000000159060770MARTINEZ RODRIGUEZ,JOSE MANUEL          0020721644003291
001020457750000641582000000142500770GARCIA, YESSIKA MARIA                   0020721809003291
001020854830000022473000000142500770ZAPATA C. YELIFER D.                    0021004648003291
001020457720000408893000000146400770ZURITA MARQUEZ, ADRIANA A.              0021107190003291
101020457740100647419000000142501770AGUILAR ALVAREZ, VIRGINIA M.            0021107315003291
101020457700100647240000000146401770ALVAREZ BETANCOURT JHONNY A,            0021107476003291
101020457790100657467000000151401770MARTINEZ YARUMARE, DANIELA              0021107581003291
001020457790000393539000000146400770LOPEZ CAIDANA, EDDI ARMANDO             0021107984003291
001020712650000042123000000146400770MARINO BONILLA ELOY                     0021108188003291
001020457710000524337000000151400770SANCHEZ GUERRERO, LINA                  0021108945003291
101020200100100003045000000146401770MENDOZA MENDOZA, NANCY A.               0021507539003291
001020457740000425546000000159060770YAVINAPE TAPO JOHANNA                   0021547069003291
001020457740000761679000000146400770ABAD DIAMON DAIRI CAROLINA              0021547151003291
001020147110000055932000000142500770CESAR ARVELO, MARCEL EDGARDO            0021547299003291
001020457730000515045000000146400770RUIZ ALONZO, DAYMAR ALEJANDRA           0021547404003291
001020457740000192879000000189330770CASTILLA RESTREPO, DORIS                0021547828003291
001020457780000756558000000142500770MORALES GONZALEZ, NORALBA               0021547839003291
001020457750000762869000000142500770LOPEZ PONARE, MAYERLIN YASNEIL          0021547846003291
101020457740100656962000000146401770RUIZ SILVANO, ANGELICA LISANDR          0021548075003291
001020457750000447456000000159060770GARCIA GAITAN,JIMMI                     0021548202003291
001020457710000506601000000150460770CABALLERO PEREZ JOSE F.                 0021548229003291
001020457750000258483000000151400770URBINA M., ALIANA                       0021548379003291
101020457770100652576000000146401770CASTILLO BOLIVAR, RAMON                 0021548605003291
001020457730000883502000000142500770CORREA SANCHEZ, JHONDEIVIS              0021548705003291
001020457710000592217000000142500770CARIBAN FUENTE YANEYDY ADELCY           0021548800003291
001020457740000556282000000159060770NAVAS MARIA PILAR                       0021549046003291
101020457730100658204000000146401770PEREZ GONZALEZ, LISANDRO A.             0021549576003291
001020103980000440990000000146400770GARRIDO DAVALILLO, FRANCISCO            0021549969003291
001020467450000604891000000159060770DIAZ GUANNI                             0021605409003291
001020457790000543648000000164060770ORTEGA VILLAZANA BISMAR                 0021789035003291
001020317190000423726000000146400770AGUIAR RIASCO, BETZABETH K.             0022220003003291
001020457730000511609000000146400770MONASTERIO MOTA, LEONELIA NAIR          0022533300003291
001020457780000128791000000146400770BALTA, ELBA TERESA                      0022568734003291
001020457700000546797000000142500770URBINA FIGUEROA LUIS ENRIQUE            0022807088003291
001020457710000686217000000146400770FUENTES ARADE, YUSSET AREANA            0022807106003291
101020712620100002020000000142501770MENDOZA MENDOZA JOSE GREGORIO           0022807306003291
101020457710100652526000000146401770VERDUGO ALFONZO, ANTONIO                0022820145003291
101020457780100652830000000159061770MATUTE ADRIANA YSABEL                   0022882636003291
001020457760000463650000000159060770ROJAS NOHELYS                           0022930618003291
001020457790000398644000000146400770GOMEZ DADURE, CINDY NORANGEL            0022930685003291
101020457790100652446000000178441770RIVAS GUARULLA, GRACIANO                0022932471003291
001020457730000527745000000142500770FERNANDEZ ESCOBAR, MELVIN               0023646050003291
001020457770000516581000000150460770PEREZ CAMICO MARIA DEL CARMEN           0023646285003291
001020457760000833303000000146400770ROJAS MIRABAL, EDWARD JOSE              0023646392003291
001020457780000557896000000150460770MARTINEZ CHIPIAJE YOLIMAR               0023646674003291
001020457770000553243000000159060770GARCIA R, MARJORI G.                    0023646722003291
001020457760000815965000000142500770VALERIANO PONARE ANGEL REQUENA          0023646898003291
001020457760000623445000000146400770SOTILLO CANAS, ARIADNA                  0023647017003291
101020457730100654881000000163631770CATIMAY GARCIA JOSE DANIEL              0023647102003291
101020457710100648516000000163631770CUICHE PAYEMA,DIANA                     0023647311003291
101020457700100655371000000151401770GONZALEZ LUNA, RAIDYS ANDREINA          0023647354003291
001020457790000449124000000163630770NAVAS PAYEMA WILSON RAMON               0023647668003291
101020457710100657306000000159061770CHIPIAJE GARCIA ELBA LILA               0023647712003291
001020457710000504153000000142500770BARRIOS SILVA, YARIMA RENILIZ           0023647745003291
101020457710100651559000000146401770ALVAREZ CHIPIAJE, LAURA C.              0023647773003291
001020457700000616038000000150460770MIRABAL DASILVA ADRIAN                  0023647943003291
001020457740000553382000000164060770LOZANO GONZALEZ, JONATHAN               0023696221003291
001020457760000496423000000163630770CANA PEREZ OVELYS YANETH                0023985006003291
001020457740000597267000000142500770ZAVARCE ALVAREZ SHIA                    0023985251003291
001020457700000851877000000142500770MENDOZA ASIZA, CRISANGELA               0023986651003291
001020147110000102814000000146400770IZQUIERDO LARA, JOSE GREGORIO           0023986902003291
101020457790100654018000000146401770SANCHEZ GUERRERO CLARA                  0023987320003291
001020457700000545455000000159060770PEREZ PEREZ,CURASIRI                    0024127507003291
001020457750000489786000000142500770GOMEZ CARIBAN, EUDY ELEAZAR             0024127811003291
001020457750000652937000000146400770PEREZ PONARE, WILSON ROGELIO            0024127818003291
001020457760000695648000000142500770URIBE URIBE, EDIDSON                    0024127823003291
001020457770000915250000000142500770YANAVE C. MARIA D.                      0024127935003291
001020457720000517564000000142500770RODRIGUEZ S. NIRMA I.                   0024127972003291
001020457710000252010000000142500770LOPEZ L. JOSE A.                        0024127988003291
001020457710000612207000000142500770ESCORCHE  A. DELIA D.                   0024128015003291
001020457750000404431000000142500770SOLORZANO E. WILMARY A.                 0024128028003291
001020457740001084096000000142500770RODRIGUEZ R.DISNEY A.                   0024128086003291
001020501850007193800000000142500770TOVAR A. ALMALY                         0024128114003291
001020457710000445225000000142500770PADRON E. JOSE A.                       0024128146003291
101020457700100657430000000159061770DOMINGUEZ,MARCO FIDEL                   0024128435003291
001020225600000153708000000146400770TINEDO PESQUERA, NELSON JOSE            0024128511003291
001020457790000448510000000159060770PRIETO PONARE, GLEISMAR S.              0024128679003291
001020457790000662008000000146400770OLIVEROS MURE, CLEIMAR A.               0024128716003291
001020457770000747156000000142500770ALVARADO CASTILLO, MARIA                0024539577003291
001020457740000496892000000146400770SOSA, JHONATHAN JOSE                    0024677244003291
001020457710000591690000000146400770PEREZ FLORES, CAYNNA                    0024677386003291
001020457700000455464000000146400770SOSA JIMENEZ, ANGEL ANTONIO             0024677458003291
001020457730000620202000000146400770FUENTES ARANA, SANTRISH                 0024677742003291
001020457710000439613000000151400770RODRIGUEZ RIVAS,  YOSELYN               0024677874003291
001020457760000525080000000151400770CAMICO, MARIELIS CAROLINA               0024678183003291
001020457730000423580000000159060770VALERA PESQUERA,GENESIS MARIA           0024678425003291
001020501840007195507000000142500770ARANA LANDAEZ TANIA                     0024678726003291
001020457720000775843000000142500770RODRIGUEZ V. MAURIS A.                  0024892308003291
101020712660100004640000000142501770MILLAN CADENA ARQUIMEDES JOEL           0025005135003291
001020457780000556554000000146400770MIRABAL DE LOS R., MAOTSELIA G          0025054077003291
001020116120000250326000000150460770SALAZAR G. DIHOMERLYS                   0025054408003291
001020457780000608457000000146400770PEREZ RIVAS SERGIO EDUARDO              0025054757003291
001020457710000498502000000155460770LINARES YANAVE JHENDERLY G.             0025054921003291
001020457780000503112000000146400770LARA TOVAR , ISAURA MARIBEL             0025240479003291
001020457700000547657000000159060770FARFAN GONZALEZ, OLIMPO G.              0025275500003291
001020457740000418919000000159060770GUDINO CAMACHO,GLAYSIRIS                0025275766003291
001020457780000907446000000142500770URIBE Y. YEIFER E.                      0025275883003291
001020457710000600882000000146400770ORTIZ PEREZ, ADELAIDA M.                0025275913003291
101020457700100651210000000159061770MISCIA FUENTES,YORVIS RUBEN             0025532562003291
001020457750000687915000000147500770MEDINA G. YOSBEIDI M.                   0025585060003291
001020457700000247083000000142500770SALAZAR RAMIREZ, YOSELYN A.             0025585244003291
101020457770100657941000000142501770DIAZ SILVA, DILCEN DEL VALLE            0025585661003291
001020457740000545332000000163630770GOLINDANO NIEVES,DARWIN                 0025858700003291
101020457710100657452000000142501770MOTA M. MARIA L.                        0025585813003291
001020457750000722016000000142500770ARANGO, LUIS FERNANDO                   0025734318003291
001020457720000384661000000146400770AREVALO DIAZ,BLANCA NIEVES              0025734715003291
001020457710000506517000000146400770AVENDANO GONZALEZ, YOSMAN               0025734995003291
001020457730000432005000000146400770CARDENAS PALMERO, CARMEN                0025756121003291
001020457760000823290000000142500770GOMEZ ZURUTA JOSUE YAMPHIER             0025830255003291
001020457750000685629000000146400770GOMEZ CARIBAN, RONAL                    0025830784003291
001020457700000367028000000163630770CARRILLO RODRIGUEZ, VICTOR              0025830865003291
001020457790000742070000000142500770PONARE PONARE, YOLIMAR YECENIA          0025901793003291
001020457750000749345000000142500770GAITAN REYES, CRISBEL                   0025901794003291
101020457780100655999000000159061770NAVAS CHIPIAJE,NILSA LUZMARI            0026013264003291
001020457750001009356000000142500770RODRIGUEZ L. KARLY M.                   0026013695003291
001020501810007195646000000142500770GARCIA S. YASMELY                       0026013753003291
001020457710000815842000000142500770TOVAR G. JENNER I.                      0026013770003291
001020457770000812104000000142500770PONARE P. JOSE                          0026013771003291
001020457740000824215000000142500770PONARE Y. CELESTE R.                    0026013773003291
001020457730000979212000000142500770ORTIZ M. FLORELY                        0026013801003291
001020457730000416953000000142500770BIFANO PEREZ RUSSEL                     0026013803003291
001020501870007213641000000142500770RODRIGUEZ M. JANET                      0026013828003291
001020501810007213667000000142500770PONARE M. GLENNY T.                     0026013851003291
001020457750000873020000000142500770ALFONZO BRITO DANIELA PATRICIA          0026083617003291
001020457770000193438000000159060770GAITAN LARA,DILVIS BRISEYDA             0026083669003291
001020457710000556981000000159060770PEREZ RIVAS NILERIO J.                  0026083824003291
101020457790100652558000000159061770NAVAS MUNOS,YOHANA EDELIMAR             0026083838003291
001020457720000792318000000142500770ARANGUREN C. ROBERTO J.                 0026184022003291
001020457720000569583000000159060770INFANTE MIRELIS, ARELIS A.              0026184249003291
001020457700000810410000000142500770CHIPIAJE R. DAILY                       0026184286003291
001020457760000752222000000142500770SILVA ESTRADA, TANIA CAROLINA           0026184432003291
001020457780000403351000000159060770GARCIA RIVAS,KIMBERLYN                  0026184691003291
001020457750000692256000000146400770ARROYO FERNANDEZ, JENIFER DEL           0026184699003291
001020457750000665610000000146400770ARMAS BELISARIO, ALCIDES ADRIA          0026184818003291
001020457710000392860000000146400770AGUILAR GUEVARA, JESUS ALBERTO          0026184907003291
101020457770100658118000000146401770CAMICO SANCHEZ, EDDY ANTONIO            0026321219003291
001020466670000492113000000146400770AGUIRRE YARUMARE, DARWIN                0026328546003291
001020457790000562247000000142500770CAYUPARE QUINONES, OWENS I.             0026542287003291
001020457710000441300000000146400770GUERRERO HOMERA, WILFREDO               0026542405003291
101020457750100657746000000159061770RODRIGUEZ CARIBAN,MIGUEL                0026542410003291
001020457770000385068000000163630770CARRASQUEL RIEVERO, SUSANA              0026542465003291
001020457770000419882000000142500770QUINTERO PEREZ, ANGELICA                0026542479003291
001020457740000363873000000173310770CARDOZO, ALIRIO                         0026542741003291
001020457730000669027000000146400770COLINA, ENDRI RIGOBERTO                 0026664106003291
001020457760000603423000000142500770CALLEJE G. DAIMARA D.                   0026664181003291
101020457780100656263000000142501770CAYUPARE MARTINEZ, JORGE                0026664366003291
001020457780000562483000000150460770RENGIFO ESCALONA MERCEDES               0026664508003291
001020457740000412148000000146400770TORRES GUTIERREZ, NAZARETH A.           0026754097003291
001020457780000514062000000163630770GAMBOA CAICEDO, HUBERT EDUARDO          0026754108003291
001020457700000605010000000142500770YAVICO M. ALEJANDRA                     0026754259003291
001020457720000493976000000146400770GONZALEZ, ALCIDE JUVENAL                0026837702003291
001020457720000728764000000142500770MERMEJO TOVAR ERLINDA                   0026965335003291
001020457740000689625000000146400770LEON DIAZ, MARIA VALENTINA              0026965365003291
001020457760000560508000000146400770LOPEZ PANCHO, ELIZABETH                 0026965414003291
101020457700100656195000000151401770CARRILLO ORIBIO, TSAMAY ELENA           0026965733003291
001020457710000513393000000146400770GUAPE BOBADILLA CAROSLAY                0027066118003291
101020457720100654064000000150461770LOVERA GOMEZ VICTOR                     0027066354003291
001020457730000688189000000146400770CALDERA ALVAREZ, MAYRA A.               0027066488003291
001020457740000505767000000163630770CESAR ORTEGA JILLARY EILLEN             0027066555003291
001020457770000822437000000142500770CHIPIAJE, SANDRA BERONICA               0027066579003291
001020457740000393827000000163630770CONDE NIEVES, ADRIAN                    0027066797003291
001020457710000811202000000142500770RIVAS P. CARLOS M.                      0027224275003291
001020457710000847603000000142500770CHIPIAJE F. DIANA D.                    0027224284003291
001020501890007195060000000142500770ARANA A. ENERLIN B.                     0027224296003291
101020457740100654449000000142501770VENECAS RODRIGUEZ, ISMELKY              0027224469003291
101020457730100652175000000150461770GONZALEZ CAMPOS JOSE                    0027224721003291
001020346540000821124000000146400770DORTA BARRIOS, NELSY NOHEMY             0027224777003291
101020457790100654651000000146401770CABELLO FLORES, REBECA                  0027365630003291
001020457750000439163000000142500770PEREZ RODRIGUEZ NEREIDA ESTELA          0027365719003291
001020457700000856092000000142500770GOMEZ MURILLO, EDELXON EDUIN            0027365967003291
101020457700100656648000000146401770GUAPE CARRASQUEL, MARIANYER             0027365970003291
001020712600000053840000000142500770PIMENTEL GARCIA JESSICA                 0027417255003291
001020457780000623461000000146400770MISA MENDOZA, ASHLEY MARIANA            0027456172003291
101020457750100657956000000146401770GUILLEN GUEVARA, LUZ MARY               0027489034003291
001020457710000809997000000142500770PEREZ OLIVARES, MARIANNY E.             0027489180003291
001020457760000580614000000146400770MARCHAN GONZALEZ, LUIS FELIPE           0027489619003291
001020457740000409847000000146400770MUNOZ TOVAR, YOAN FRANCISCO             0027489621003291
001020457790000589495000000146400770AGUIRRE GOMEZ, JOEL JOSE                0027489681003291
001020457760000688053000000150460770ROSALES SEIJAS, JORGELYS G.             0027534309003291
001020457710000440204000000163630770MARTINEZ CHIPIAJE, ABEL                 0027534761003291
101020457700100653359000000142501770CUBAS R. JOSE. A                        0027640074003291
101020457780100654612000000142501770ROMERO TOVAR, JOSE RICARDO              0027640176003291
001020457710000787721000000142500770FERNANDEZ ESCOBAR, DENNYS M             0027645185003291
001020457710000521686000000146400770RODRIGUEZ DIAZ, YOHANDRY G.             0027645618003291
001020457760000569130000000146400770OLIVARES JIMENEZ, MARIA JOSE            0027727019003291
001020457740000685946000000142500770MARTINEZ CAYUPARE, DIRIANNYS            0027727097003291
001020457760000797614000000146400770TORREZ VILLANUEVA, ODALIZ               0027727474003291
101020457720100656588000000159061770GAITAN J. JHON A.                       0027727516003291
001020457710000689997000000146400770MORILLO POLANIA, ELIGIO NICANO          0027740857003291
001020457760000611635000000146400770CARIBAN CARIBAN, DENIS JESUS            0027740974003291
001020457730000384182000000146400770CUELLO NAVAS, GREGORIO G.               0027901679003291
001020457710000448044000000163630770RODRIGUEZ RODRIGUEZ, ALBERTO            0027901793003291
001020457720000563699000000142500770GUAPO FLORES, JOSE GREGORIO             0027950045003291
001020457710000653279000000146400770ALVAREZ ARANA, BETZAIDA                 0028118270003291
101020457770100658121000000146401770GONZALEZ GUERRERO MICHELE               0028212403003291
001020457710000411262000000154680770FERMIN GONZALEZ, EDGARDO A.             0028212414003291
001020457790000664132000000146400770CORDERO CABAVANA, JHONNY DE J.          0028269530003291
001020457720000808419000000142500770AGUIRRE GAMEZ, JORDAN JOEL              0028269581003291
101020501870109401635000000142501770CUANTINDIOY, CARLOS ENRIQUE             0028269650003291
001020457770000665623000000146400770AMUNDARAIN MARIELIS                     0028269863003291
001020457730000767071000000146400770ESTABAS LADINO, ROXIBEL A.              0028348043003291
001020457710000667207000000142500770INFANTE LINARES JHON A.                 0028348198003291
001020457720000506614000000159060770ROJAS SOLORZANO,MARIS                   0028348475003291
001020457710000654375000000146400770CADENAS BAYONA, MARY SAMANTHA           0028370084003291
001020457760000684374000000146400770PEREZ, NELSON RODOLFO                   0028370156003291
001020333310000433114000000146400770MANIA CORREA, EIGREMAR L.               0028370183003291
001020457760000749112000000142500770SALAZAR RAMIREZ HEMING                  0028370326003291
001020457750000890304000000142500770GUERRA MOTA JORKY HAROL                 0028370435003291
001020457750000519711000000142500770GAMBOA TORREALBA, INGRID M.             0028559247003291
001020501870006904265000000146400770ALMEA HERRERIDIA, FREYLIMAR             0028559357003291
101020457700100650574000000146401770AGUILAR GARCIA, YEISY JOHANA            0028559393003291
001020457720000789936000000142500770QUINTO R. CESAR A.                      0028612569003291
001020457760000661368000000146400770PINA MORILLO, GEIXANIEL                 0028612613003291
101020457760100653199000000173311770HERRERA JARA, HERMES                    0028622449003291
101020457700100657766000000146401770LOPEZ GIL, MARIAN ROSA MISTICA          0028654766003291
001020457790000878960000000142500770ENRIQUE URRIETA JAVIER                  0028761817003291
101020712690100003316000000146401770GARCIA HERNANDEZ DARIANNY CARO          0028783134003291
001020457750000973263000000142500770ROJAS PAREDES, RUSSARQUIS N.            0029547808003291
001020457710000571335000000154680770GONZALEZ RIVAS, FRANCISCO B.            0029878057003291
001020457720000664404000000146400770CLARIN ROMERO WUIDELFI                  0029878182003291
001020457710000735223000000142500770ALVAREZ DOMINGUE, ANAHIS                0029878686003291
101020501870109401540000000142501770CUPIDO RODOLFO                          0029878828003291
001020457720000592877000000146400770BASTARDO MEJIAS, ARIANNYS               0029878894003291
001020457750000855035000000142500770GONZALEZ MUJICA, ANA                    0029878948003291
001020457710000800077000000142500770PUERTA MELGUEIRO, CRUZ DEL V.           0029937112003291
001020457710000856270000000142500770LOPEZ FEDERICO, EVELI MELANI            0029937319003291
001020457730000720610000000142500770CORASPE S. ANTHONY A.                   0030100068003291
001020457770000647395000000146400770GAMEZ CASTILLO, JOSE GREGORIO           0030100130003291
001020457770000582984000000146400770JIMENEZ SANTIAGO                        0030100471003291
001020457750000766386000000146400770ATAGUA CALDERON, ABRIEL ANTONI          0030100613003291
001020457740000921558000000142500770CELIS QUILELLI YOSMARLIS SARAI          0030100710003291
001020457760000783275000000146400770MEDINA MEDINA, YORBIS A.                0030100921003291
001020457790000624813000000146400770CAMACHO DELGADO, ELIAN DAVID            0030100961003291
001020457780000713368000000142500770RODRIGUEZ CHACON MARIANO JOSE           0030332575003291
001020457720000914109000000142500770CAMICO T. ROER CRISTIAN                 0030332602003291
001020457750000663968000000146400770HERRERA CABABANA, XADDIEL               0030332753003291
001020457750000692418000000146400770LOPEZ,  IRENE                           0030492459003291
001020457770000870861000000142500770ROMERO C. JUAN C                        0030492935003291
001020457710000671507000000146400770GOMEZ MENDEZ, ROBERT ANTONIO            0030690674003291
001020457710000670812000000146400770TOVAR INFANTE, DITTCELI G.              0030690687003291
001020457780000667508000000146400770ESTEVES RODRIGUEZ JOSIE                 0030691140003291
001020457710000886619000000142500770LESMES AZAVACHE, KARLA                  0030691195003291
001020501800007213256000000142500770BOLIVAR YORDAN J                        0030845873003291
001020457750000738068000000142500770DIAZ URIBE, JOSE                        0030846472003291
001020457760000728311000000142500770BOLIVAR GONZALEZ, DAILIS                0030915138003291
001020457780000753823000000146400770CARRASQUEL ULEGELO VICTOR               0031019055003291
001020457760000786984000000142500770MORENO TRABASILO, DERLINIS E.           0031113704003291
001020457790000846154000000142500770CLARIN R. WILFRAN C.                    0031216939003291
001020457720000885050000000142500770VELAZQUEZ B. SASHATH M.                 0031216960003291
001020457760000663573000000142500770MEDINA GARCIA MARIA ALEJANDRA           0031217181003291
001020457730000873732000000147500770GUAPE M. GENESIS                        0031258461003291
001020457750000687025000000146400770YANAVE LOZADA CAROLINA                  0031328562003291
001020457750000915881000000142500770GARCIA ALVARADO, IGNALLY J.             0031328916003291
001020457750000868187000000142500770MEDINA MEDINA ROSA ANGELICA             0031477232003291
001020457790000859387000000142500770GARCIA C. SOLIANNY E.                   0031773965003291
001020457700000887634000000142500770PERDOMO RATTIA, WILEXYS                 0031773971003291
001020457750000900197000000142500770BERMEJO Y. ALEXIS M.                    0032259472003291
001020457710000484326000000146400770LAGE DE ARAGUA, GUIANEYA                0084581748003291
001020457740000427829000000142500770PI?ATE SALDE?O ZORALIS A.               0017676206003291
001020457780000164027000000142500770RODRIGUEZ FERMIN LUIS ANGEL             0019805211003291
001020457740000899402000000142500770LOPEZ GARCIA RUBYS                      0027496295003291
001020457710000869665000000142500770MALDONADO NAPOLEON MARICELA             0025734938003291
001020457790000569473000000142500770QUERO DACOSTA CANDIDO FRANKLIN          0025275666003291
001020457700000461801000000142500770GAITAN GAITAN MARIA GREDY               0017675799003291
001020457740000768339000000142500770MORENO MORALES LUISA YANINA             0025830765003291
001020501850007215021000000142500770INFANTE GAITAN HERNAN                   0015499857003291
001020457790000902674000000142500770DIAZ PONARE YELITZA VALERIA             0031113907003291
001020501850007194896000000142500770YUAVI CONTRERAS ZULEIMA YARICE          0026013766003291
001020457750000939579000000142500770VALERIANO MAENDEZ ANTONIO               0027534032003291
001020457750000948816000000142500770MENDEZ RIVAS NUVIA                      0021107732003291
001020457790000948845000000142500770GARCIA MENDEZ HERMELINDA IRIS           0033823457003291
001020457720000906298000000142500770ZAPATA CASTILLO JUANA ABIGAIL           0030595209003291
001020457750000909143000000142500770DORANTES DIAZ ANDRES FELIPE             0023647164003291
001020457740000958660000000142500770SILVA JIMENEZ FRANCI CAROLINA           0026754115003291
001020457720000484419000000142500770LARROSA RIVAS JOSE RAMON                0020018913003291
101020457790100645075000000142501770MENDOZA ARANA ALEXANDER                 0019805108003291
001020457760000243537000000142500770LOYOLA LEDEZMA NORA CELENA              0026013573003291
001020501840007213696000000142500770LOYOLA LEDEZMA FREDDY JOSE              0028269673003291
001020457750000839983000000142500770PRATO RODRIGUEZ MARILUZ                 0027224342003291
001020457700000421427000000142500770CANCIO SILVA YENNY MARLENY              0015954884003291
001020457770000962164000000142500770PEREZ PEREZ YSMENIA                     0012469119003291
001020457790000849300000000142500770PINEDA SANOJA ANDERSON ALEXAND          0027727587003291
001020457770000960852000000142500770ARANA ARANA RAFAEL ENRIQUE              0010605411003291
001020501870007213722000000142500770MENDOZA ARANA RICHARD                   0026438956003291
001020457710000212924000000142500770CAMICO CAMICO JUAN LUIS                 0021549083003291
001020501890007194359000000142500770DIAZ MARTINEZ GILBERTO                  0020720676003291
001020501800007194126000000142500770LEON OVIEDO FREIDA MERIBET              0019326312003291
001020457780001082250000000142500770MACHADO CLARIN KARLA ELIZABETH          0027489036003291
001020457710000622789000000142500770BLANCA RODRIGUEZ MARIA ISABEL           0021548710003291
001020501840007214394000000142500770SANCHEZ MENDOZA GRISEL                  0028559085003291
001020457710000960959000000142500770SANCHEZ MENDOZA MARISOL ROSA            0021789232003291
001020501830007213531000000142500770ARANA MARIA LUISA                       0010024115003291
001020457720000623173000000142500770RITA SANCHEZ CARIBAN                    0024127971003291
001020501810007196739000000142500770LAURA ENELCY GARCIA CHIPIAJE            0028513837003291
001020457730000916725000000142500770ANTONIO AURELIANO ZURIBISANA R          0017105857003291
001020457770000759131000000142500770XIOMARA DEL CARMEN RODRIGUEZ Y          0027489339003291
001020501810007213272000000142500770ANGELA MARIA CHIPIAJE                   0030846767003291
001020457770001022249000000142500770FELIX CARRILLO                          0010605158003291
001020457730000803731000000142500770CHEO CASTILLO MARTINEZ                  0029937133003291
001020457710000801665000000142500770THAILER JHONCAR URIBE CAYUPARE          0031939014003291
001020457770000622187000000142500770PERDOMO NILSA                           0015304237003291
001020457730000369987000000142500770REINALDO DARWIN LINARES PADRON          0017676446003291
001020457720000611606000000142500770JOSE GABRIEL MATA GARCIA                0015086076003291
001020457770000207094000000142500770JUNIOR ANTONIO SALAZAR PEREZ            0021548511003291
001020457710000493730000000142500770ROSAURY ANAIS SALAZAR PEREZ             0023987309003291
001020457780000905969000000142500770 SILVA CARIBAN AMELIA                   0018050572003291
001020501850007213625000000142500770CARDOZO GAVINI RONALDO MARTIN           0026013725003291
001020501810007214608000000142500770 GAVINI MEDINA CARMEN                   0019580685003291
001020457750000917274000000142500770RODRIGUEZ RODRIGUEZ BEATRIZ             0019580110003291
001020457750000499556000000142500770 SILVA CARIBAN LILIA                    0021548687003291
001020457710000614823000000142500770META FUENTES AMANDA ANGELICA            0019805980003291
001020457700000904397000000142500770SILVA CARIBAN CARMEN MARIA              0024127973003291
001020457750000903987000000142500770SILVA ESTRADA ROBERTO CARLOS            0020720569003291
001020457710000892467000000142500770PEDRO ANTONIO MAQUENURE LOPEZ           0008949930003291
101020457770100657017000000142501770JOSE FRANCISCO HERNANDEZ OLMOS          0013937126003291
001020457710000808817000000142500770TAIS SUSANA CORDOBA BALCAZAR            0015984454003291
001020457740000473158000000142500770BELTRAN DALY ROJAS MARQUEZ              0012469663003291
001020457730000404415000000142500770JOSMARY ALEXANDRA SANDOVAL NAV          0022930634003291
001020457790000229904000000142500770AVEJECHI?EVEJU NOVENZA RODRIGU          0019055041003291
001020457770000526995000000142500770PABLO BENITO GAVINI MEDINA              0012451290003291
001020457780001031900000000142500770LUISA MARIAMIS RAMIREZ DELGADO          0020721403003291
001020457740000550806000000142500770ESTHER ELIANA CARRASQUEL PERAL          0018243586003291
001020457700000448028000000142500770YESSICA NAYIBE NI?O                     0023647500003291
101020457780100645392000000142501770JOSE LUIS CARDIERTORRES                 0010663931003291
001020457770000270843000000142500770JESUS RAFAEL ANAURE RUFO                0025901856003291
001020457700000153494000000142500770DOPA ARAGUA FRANKLIN LUIS               0017676124003291
001020457750000771216000000142500770GARCIA GARCIA NITZON                    0026013836003291
001020457720000793498000000142500770CHIPIAJE MANUEL ANTONIO                 0008901108003291
001020457740001082137000000142500770BLANCO MENDEZ MARCELO                   0008904269003291
001020457740000600426000000142500770MEJIAS JORGE                            0008948453003291
001020457700000573773000000142500770JIMENEZ LOZADA LINO                     0010920279003291
101020501860109401580000000142501770AMAYA MENDEZ INES MARIA                 0012451453003291
001020501810007193282000000142500770GARCIA GARCIA NORIS                     0012469343003291
001020457710000907873000000142500770PEREZ PEREZ BERNABE                     0013058236003291
001020457710001084151000000142500770RODRIGUEZ RODRIGUEZ GRACIELA            0013058792003291
101020457780100656327000000142501770TOVAR ELEIDA JOSEFINA                   0013937048003291
101020457790100657436000000142501770PADRON HERRERA JOSE AUGUSTO             0014258571003291
001020457740000824697000000142500770RODRIGUEZ ELVIRA                        0015086073003291
001020457790000285728000000142500770HEREDIA FERNANDEZ JOSE SESUS            0015304629003291
001020501880007195293000000142500770ARANA OMANA YAJAIRA                     0015304773003291
101020457710100654591000000142501770CALDERON GAITAN ANGELA                  0015499412003291
001020457760001081455000000142500770RODRIGUEZ RODRIGUEZ JOSEFA              0015500781003291
001020457780000819822000000142500770RODRIGUEZ ADELMIRA JUDITH               0015954557003291
001020457710000438672000000142500770LEAL EURIDIS DEL CARMEN                 0015955926003291
001020457710001084070000000142500770MURILLO RODRIGUEZ ERMELIMDA             0017106446003291
001020457740000602712000000142500770OTERO PEREZ GEORGINA                    0017675737003291
001020457710000449221000000142500770VILLANERO MEDINA GERMAN                 0017676168003291
001020501810007194702000000142500770CONTRTERAS GARCIA MARVIN JONAS          0017676814003291
001020457720001084083000000142500770YANAVE CHIPIAJE VICTOR MANUEL           0018505310003291
001020457700001102334000000142500770CHIPIAJE RODRIGUEZ OMAR                 0018505561003291
001020457750000803016000000142500770RODRIGUEZ PEREZ WILLIAM ISMAEL          0018506440003291
101020501870109401599000000142501770FUENTES MENDOZA ANGEL                   0018835122003291
001020457710001044434000000142500770HENRIQUEZ RODRIGUEZ HUMBERTO            0018835848003291
001020457770000282734000000142500770RAMIREZ LOPEZ ABELARDO                  0019054040003291
001020457720000916961000000142500770TORRES YAMILET                          0019298715003291
001020457730000529138000000142500770GARCIA RODRIGUEZ DARWIN.                0019352980003291
001020457750000461762000000142500770FIGUERA HURIBE FERYENI                  0019580185003291
101020457730100657151000000142501770GONZALEZ ALEJANDRO                      0020018314003291
101020457780100651628000000142501770CEDENO AVARISTO JOSE ALBERTO            0020018850003291
001020457770000891743000000142500770PEREZ GUERRERO JOSE ANGEL               0020018963003291
001020457710000860237000000142500770ARANA BLANCO CECILIA                    0020437657003291
001020457710000229755000000142500770PANAMA PONARE ULCRIDES MERQUIA          0020437846003291
001020457730000395537000000142500770ZARRAGA AQUINO MIGUEL JOSE              0020437965003291
001020457750001084672000000142500770CHIPIAJE ADELSO                         0020720819003291
001020501850007194414000000142500770CASTILLO CURUMI INARU IGRANIEL          0020721771003291
001020457710000525598000000142500770FERMIN VELAZQUEZ NARELKYS               0021107704003291
001020457700000809421000000142500770RODRIGUEZ ADRIAN EDILIO                 0021548778003291
001020457710000813394000000142500770RODRIGUEZ SANDRA BERONICA               0023647701003291
001020457710000593478000000142500770BRAVO HERRERA YOELUIS                   0023987468003291
001020743610000362078000000142500770RODRIGUEZ RICHARD COLBERT               0024128090003291
001020457710001068779000000142500770RODRIGUEZ YOEL                          0024128093003291
001020457700000595997000000142500770LOPEZ HERRERA, GREIMAR                  0024128522003291
001020501880007195620000000142500770ARANA ARANA GILMER EDGARDO              0026013663003291
001020457700000801089000000142500770SILVA COLINA NAUDY LISBET               0026013777003291
001020457750000833617000000142500770GARRIDO INFANTE DIREHUE RAMON           0026184936003291
001020457720000664242000000142500770YAVARICURE DELGADO JOSE                 0027640821003291
001020457730000411686000000142500770MONAGAS RODRIGUEZ GENESIS               0027645394003291
001020457730000685616000000142500770GAITAN REYES EMMA MORELA                0028370328003291
001020457700000932314000000142500770MONAGAS RODRIGUEZ MARIA                 0029878464003291
001020457710000904494000000142500770RODRIGUEZ LEDEZMA INGRID CAROL          0030332286003291
001020457780000887375000000142500770PEREZ RODRIGUEZ SALUSTRIANO             0030332880003291
001020457730001057201000000142500770RODRIGUEZ JULIO CESAR                   0030492887003291
001020457750000625964000000142500770REINA CORO MILAGROS MARIA               0030690754003291
001020457790000611897000000142500770ESCORCHE ARANA SUELY ZULIMAR            0030691182003291
001020457700000816210000000142500770PRINCIPAL M.SAID E.                     0031019194003291
001020457760000887359000000142500770CARDOZO SALAS NORELYS                   0032075833003291
101020457730100651379000000142501770DI MARO BARRIOS PABLO                   0020721496003291
001020457710000196286000000142500770BOLIVAR GONZALEZ RUTH                   0019563720003291
001020457710000622624000000142500770PEREZ GARCIA HILDA                      0012629500003291
001020457760000522096000000142500770GONZALEZ ALVAREZ LISBETH                0018834323003291
001020457780001050415000000142500770PEREZ PEREZ MIGUELINA                   0024127217003291
001020457710000522384000000142500770OROZCO LUIS HORACIO                     0005551871003291
001020457710000722715000000142500770CASTILLO PACHECO JOSE LUIS              0022806958003291
001020457720000374891000000142500770CARIBAN CHIPIAJE LILIA                  0026542630003291
001020457710000444116000000142500770CABALLERO MAICO ENIS JESUS              0015954454003291
101020457710100655756000000168631770DARAPE HERNANDEZ LUCILA YURISM          0025901733003291
101020457750100640462000000168631770UZCATEGUI JIMENEZ YOXELYN YOHA          0017676370003291
001020457730000877165000000142500770CABALLERO ESQUEDA AMARILIS              0013454140003291
001020457750000407975000000142500770URIBE ARAUJO ROSIBEL                    0017849807003291
001020457770000390707000000142500770JASPE DE HERNANDEZ NATHALIA             0026073048003291
001020457710001031515000000142500770APOTO MUNOZ ADRIANA NACARIS             0031113741003291
101020457760100655096000000142501770BALCAZAR MANUEL ALEXANDER               0015245907003291
001020457760000304269000000142500770SALCEDO ESQUEDA FAVIO REINALDO          0018835543003291
101020457780100656683000000142501770GAMEZ MUNOZ NEUDY NAUDYS                0019805649003291
001020457750000518932000000142500770TINEDO LOPEZ NELSON ISMAEL              0027365234003291
001020457770000612663000000142500770MORALES HERNANDEZ ANGEL                 0008945069003291
001020457750000698946000000142500770BLANCO BLANCO DEREK ANDERSON            0030492251003291
001020457750000804196000000142500770SALIYAS GAMEZ NICOLE ROSEGLYS           0030332434003291
101020352030100527152000000142501770PENA ANDRADE ODALYS JANEL               0016882965003291
001020457760001064896000000142500770GAITAN NELSY MARGARITA                  0015954166003291
001020457700000748278000000142500770AMARISTA BRAVO ROXANI NACARI            0031391354003291
101020457720100642285000000213841770GUDINO G. MARWIN DE JESUS               0015955001003291
001020457700001104701000000142500770DASILVA YAVINAPE ERIKA MILDRE           0027489029003291
001020662620000265434000000142500770ODREMAN LOAIZA ANTHONY WILKER           0028513509003291
001020457700000494166000000142500770ALVAREZ CLARIN EMILI CAIROLI            0023987840003291
001020457790001009550000000142500770MENDEZ JHERLIN LEICAR                   0027066260003291
001020457720000834454000000142500770MENDOZA CORDERO GLILEXIS AISKE          0031880029003291
001020457720000871925000000142500770ROMERO GUARUYA RICHARD ALBERTO          0023986381003291
101020457710100637693000000142501770DIAZ CAVI ROSMEL MAYCOL                 0015499268003291
001020457710000862196000000142500770MORILLO CAMICO HEIDY MELISSA            0025585390003291
001020457760000858508000000142500770CAMICO MORILLO ALDAIS NAZAREHT          0030690539003291
001020457700000797481000000142500770BLANCO AZABACHE EDUARDO MANUEL          0026837141003291
001020457750000826019000000142500770MARQUEZ LOPEZ TONY ALFREDO              0028118182003291
001020501860002389198000000142500770CAMICO GUARUYA MELIDA                   0015303345003291
001020457710000832236000000142500770PEREZ RODRIGUEZ CLEMENTE                0018195874003291
001020457750000826022000000142500770MARQUEZ LOPEZ ALEJANDRO                 0023986453003291
001020457720000772859000000142500770ROJAS CAMICO FABIAN ARIEL               0020019755003291
001020457700000822217000000142500770GALINDO DORANTE JOSE                    0022568752003291
001020457770000892357000000142500770NAVARRO MIRABAL ERSAIN                  0027727390003291
001020457710000888183000000142500770SEGUNDO MENARES JULIO                   0025275172003291
001020457740000562373000000142500770DORANTE CLARIN OSCAR ALBERTO            0018051867003291
001020457740000888206000000142500770FUENTES GOMEZ BERNABE                   0027534960003291
001020457710000911610000000142500770HERRERA MENDEZ HERNANCIRILO             0018505780003291
001020457780000810070000000142500770PEREZ PEREZ MARIELA                     0021548515003291
001020457720001005897000000142500770RAMOS DEL CORRAL RAFAEL                 0032075534003291
001020457750000821483000000142500770LA ROSA RODRIGUEZ EZEQUIEL              0021547596003291
001020457700000932149000000142500770PEREZ LAROSA YORKI JOSE                 0029937186003291
001020457740000909703000000142500770LAROSA SABINO MIGUEL                    0030690345003291
101020457730100657859000000142501770YAVINAPE ORTEGA FLORENCIA               0021107078003291
001020457760000600196000000142500770INFANTE DIAMON JOSE                     0015303931003291
001020457770001029721000000142500770AMAYA GAMEZ ZURIMAR                     0026184194003291
001020457720001000957000000142500770RODRIGUEZ PONARE JOSEFINA               0032169518003291
001020457710000545950000000142500770GARCIA MENDEZ JILL                      0018855974003291
001020457770000513597000000142500770LUCES CHIPIAJE JUAN FRANCISCO           0017105327003291
001020457730001045226000000142500770BARRIOS MARTINEZ LABIB DAICAR           0031683005003291
001020457740000720940000000142500770MIJAREZ PARADA DANIELA ROXANA           0025937369003291
001020457790000755630000000142500770AZAVACHE PAYEMA JHON                    0020721431003291
101020457750100655124000000142501770INFANTE PENUELA ROLYMAR                 0020018225003291
101020457770100658104000000142501770CAMICO ROMERO HEDHERPSON ALI            0031328805003291
101020457720100657322000000142501770SILVA PEREZ LUCIANDRA                   0017106663003291
001020457730000864495000000142500770MARULANDA MENDOZA MAGDIEL               0030691151003291
001020457750000873745000000142500770GAMEZ ZERPA NORIELYS PAOLA              0029878442003291
001020466600001012916000000142500770TOVAR MARCANO MIGUEL ANGEL              0030492436003291
001020457720000234601000000142500770LOPEZ LARA JOAN JOSE                    0025830556003291
001020457720000543677000000142500770VELIZ FLORES ALAISA YUSMIRA             0019352175003291
001020457700000853192000000142500770LARGO YOSSELIN LILIANA                  0026754967003291
001020457770001036345000000142500770GUARAN CADENAS FRANCISCO                0030492374003291
001020457700000493390000000142500770DIAZ CARMONA ADRIANA ISABEL             0018242793003291
001020457760000663007000000142500770GUZMAN MARINO STALYN                    0030691245003291
001020457750001045161000000142500770RODRIGUEZ GONZALEZ ISANDRA              0018242848003291
001020404670000205960000000142500770PIAMO GONZALEZ GREGORI                  0026295088003291
001020457750000486158000000142500770VALERA SUAREZ JOSE RAMON                0018767829003291
001020457780001043626000000142500770LADINO META LUIS CARLOS                 0026664942003291
001020457770000749361000000142500770LOZADA MARITZA VIOLETA                  0015499042003291
001020457750000844813000000142500770GUEVARA CASTILLO CRISTHIAN              0021108637003291
101020501890109401326000000142501770PEREZ RAMIREZ JHONNY                    0010605633003291
001020303130000015956000000142500770GUTIERREZ GONZALEZ CARLOS IVAN          0015303111003291
101020457780100654951000000142501770SILVEIRA MARTINEZ YACXIS                0024128991003291
001020457770000993379000000142500770GARCIA NAVAS JUNIOR                     0024476704003291
001020457730000857059000000142500770HEREDIA DE TRUJILLO ANA                 0020019743003291
001020457790000518958000000142500770SOLORZANO BARROYETA MANUEL              0027489004003291
001020457700000488965000000142500770REBOLLEDO DIAZ MARIA ANGELICA           0025420793003291
001020457710000517467000000142500770PEREZ GUERRERO JESUS                    0015086736003291
001020457720001088571000000142500770MATUTE REYES JESUS                      0020092663003291
001020457710000785192000000142500770CABI RODRIGUEZ ARIANA                   0028269902003291
101020457740100645329000000142501770BRACHO LOPEZ TULIO RAFAEL               0013491619003291
001020457700000822945000000142500770GOMEZ URBANEJA EMMANUEL                 0030690877003291
001020712690000037727000000142500770RODRIGUEZ MENDOZA BRENDA BELEN          0028118482003291
001020115200000605638000000142500770NAVAS DIAMOND JOSE                      0027489825003291
001020457780000972510000000142500770GUALLAMARE DIAZ ELIANNY                 0031774081003291
001020457720000988517000000142500770RINCONES REYES ASHLY                    0031391398003291
101020457770100644865000000142501770MORENO TORRES JAZMIN CAROLINA           0017200161003291
001020457750000819233000000142500770BUITRAGO RANGEL DEISY DANIELA           0020721824003291
001020457710000492702000000142500770RODRIGUEZ PERDOMO NERY DEL VAL          0026083848003291
001020457700000518398000000142500770CONDE ROJAS CLAUDIA PATRICIA            0015955729003291
101020457760100655860000000142501770QUERRO PONARE MAITE                     0025275184003291
001020457750000803579000000142500770EVARISTO ARAGUA JORGE                   0018835963003291
001020457710000845401000000142500770NIEVES NIEVES RAMONCITO                 0020019202003291
001020457790001053001000000142500770CUICHE PEREZ YOSMARY                    0030492155003291
001020457760000526911000000142500770BRAYAN SIMON MARCO                      0024864715003291
001020457750000872157000000142500770LAURA ROXSANA CAMEJO ROJAS              0025419784003291
001020457740000656771000000142500770GEORGE LUIS EDUARDO GOMEZ MENA          0008949152003291
001020457750000852863000000142500770JHONATAN JESUS VERA MENARE              0027066441003291
001020457790000884077000000142500770LUIS JOSE MORALES RODRIGUEZ             0028589209003291
101020457730100656842000000142501770YURAIMA DESIREE ARANGO MELGUER          0027727277003291
001020457720000768892000000142500770EDUMAR JOSE MIRABAL HERNADEZ            0032259802003291
101020457710100651599000000142501770ADRIANA NORIANI BLANCO RINCONE          0024677675003291
001020457740001028272000000142500770FREDDY ALEXANDER GOMEZ MORALES          0030492492003291
001020457780000517852000000142500770DIXON YOEL GONZALEZ                     0018727747003291
001020457730000206529000000142500770MARIAN JOSE ROJAS HERNANDEZ             0024128617003291
001020457750000085287000000142500770WUENDIS ROSA GARCIA MENARE              0023985353003291
001020457730000318585000000142500770KEYLA ISMARA MARTINEZ DE FERNA          0014975811003291
001020457780000800624000000142500770NAHOMYS ESPERANZA GONZALEZ PAY          0026837775003291
001020457730000618188000000142500770GONZALEZ PEREZ JOSE GREGORIO            0018243314003291
001020457750000591234000000142500770COLINA FRANCO ANGEL DOMINGO             0026321172003291
001020457710000283380000000142500770ALMANZA CAMICO MARIA ELENA              0012629205003291
001020457700000711506000000146400770NAVAS CELIS, NEMESIS CARMEN             0028647687003291
001020457710000743833000000146400770NAVAS BARRERAS, ANGIE F.                0030690930003291
001020457740000798781000000142500770AGUIRRE D. JANETHSY B.                  0030493027003291
001020457750000792907000000142500770TOVAR ARADA LUIS ADRIAN                 0015955339003291
001020457770000945929000000142500770GUZMAN GONZALEZ FREDDY FABIAN           0024678513003291
101020501840109401645000000142501770BRICE?O FANIA ARANA                     0014564800003291
001020457740000941020000000142500770PONARE MENDEZ RENNY WILFREDO            0031216898003291
001020457780000939362000000142500770YUAVE CUPIDO AVRYL JULIEE               0031998443003291
001020457720000875604000000142500770MORENO CARMEN CONSUELO                  0008946233003291
001020457700000912774000000142500770YUAVI JOSE GREGORIO                     0028559419003291
001020457790000940115000000142500770DIAZ PONARE YOSELIS YAJAIRA             0018835266003291
001020457720000868734000000142500770VALERIANO FUENTES INES LETICIA          0032510948003291
001020457710000845074000000142500770LIGIA VALERIANO FUENTES                 0020437447003291
001020457760000831101000000142500770LARA LARA ANA HICELA                    0018835113003291
001020457770000833387000000142500770VALERIANO FUENTES CESAR RUBEN           0027727148003291
001020457700000850292000000142500770DIAZ GOMEZ LILIMAR DEL CARMEN           0019054149003291
001020457770000448332000000142500770SILVA SILVA MARTHA                      0015955942003291
001020457770000851372000000142500770BRICE?O FUENTES ATECHAJU ALEXA          0031113642003291
101020457730100646697000000142501770SALAZAR GUERRERO JOSE LUIS              0018686482003291
001020501800007193266000000142500770RUIZ JUNCOSA MARTIN                     0012469132003291
001020501810007194618000000142500770PEREZ ARANA SEVEREANO                   0017106124003291
001020457770000818467000000142500770RUIZ ARANA LOURNIS VALERIA              0028348425003291
001020457780000666648000000142500770MORALES SANTOS YAIDELIS NEYLA           0027489584003291
101020457780100643500000000142501770PEREZ RAMIREZ ROSALIA                   0012628928003291
001020457700000666664000000142500770ARANA ARANA RICKY ANTONIO               0026754288003291
001020501850007194980000000142500770CASTILLO MARTINEZ JUAN RANGEL           0026664908003291
001020457770001038712000000142500770CEDE?O CHIPIAJE BELLANELLY              0021549327003291
001020457770001039245000000142500770MERIDA TORRES JESUS GABRIEL             0025494291003291
001020457780001039012000000142500770CHIPIAJE YURI CAROLINA                  0026184320003291
101020712660100002855000000142501770ZERPA MOTA MAURICIO                     0025647379003291
001020457720000891057000000142500770LINARES FIGUEREDO LUIS MARCIAL          0018835706003291
001020615430000206024000000142500770GAMEZ CHIPIAJE FELIXANDER               0020436619003291
001020457730000848958000000142500770ALVAREZ PONARE FRANCIZ YUVISAY          0012469090003291
001020457700000962672000000142500770 NAAZER TOVAR SOFIA                     0028700034003291
001020457780000479068000000142500770FERNANDEZ FERNANDEZ CARINA              0020437759003291
001020712620000039877000000142500770TOVAR GONZALEZ JORGE LUCINDO            0019805452003291
001020712650000036841000000142500770MARCHENA NAVAS ENOC                     0020495685003291
001020101280000409960000000142500770PEREZ PEREZ RUBIA DARCY                 0026754851003291
001020457730000358147000000142500770ESQUEDA EIRA NORAIMA                    0012451497003291
101020457780100646042000000142501770CARRASQUEL PEREZ CARLOS FREDDY          0020436494003291
001020457740000447045000000142500770PONARE RODRIGUEZ LUIS CARLOS            0020720619003291
101020457740100053414000000142501770MENDOZA JOSE VICENTE                    0008947656003291
101020457770100652500000000142501770EVARISTO ARAGUA MARGARITA MAZZ          0018050757003291
101020457740100657173000000142501770ALVAREZ LARA MIRKA YAMILET              0013058075003291
001020457700001077760000000142500770CELIS INFANTE REIDYMAR JOSE             0031683019003291
001020101240000399384000000142500770RUIZ DE MENDOZA INES DEL CARME          0012628359003291
001020457700000853998000000142500770LOPEZ CLARIN SANDRI EDUARDO             0015500611003291
001020335050000132774000000142500770CAYUPARE DAGUEMA MIGUEL ANTONI          0015955131003291
001020457790000661232000000142500770ZAMORA FAJARDO ERIC ANTONY              0030690412003291
001020457700000312756000000142500770RODRIGUEZ BUITRAGO JOSE ALEXAN          0012628947003291
101020457790100655749000000142501770GARRIDO AGUILAR BONNY FRANCISC          0022931022003291
001020457740001063457000000142500770CABALLERO BLANCA IVAN ALEXANDE          0019805780003291
